{
  "contracts/vesting.sol": {
    "TokenVesting": {
      "abi": [
        {
          "inputs": [
            {
              "internalType": "uint256",
              "name": "start",
              "type": "uint256"
            },
            {
              "internalType": "bool",
              "name": "revocable",
              "type": "bool"
            },
            {
              "internalType": "address",
              "name": "_mentor",
              "type": "address"
            },
            {
              "internalType": "address",
              "name": "_advisor",
              "type": "address"
            },
            {
              "internalType": "address",
              "name": "_partner",
              "type": "address"
            }
          ],
          "stateMutability": "nonpayable",
          "type": "constructor"
        },
        {
          "anonymous": false,
          "inputs": [
            {
              "indexed": true,
              "internalType": "address",
              "name": "previousOwner",
              "type": "address"
            },
            {
              "indexed": true,
              "internalType": "address",
              "name": "newOwner",
              "type": "address"
            }
          ],
          "name": "OwnershipTransferred",
          "type": "event"
        },
        {
          "anonymous": false,
          "inputs": [
            {
              "indexed": false,
              "internalType": "address",
              "name": "token",
              "type": "address"
            }
          ],
          "name": "TokenVestingRevoked",
          "type": "event"
        },
        {
          "anonymous": false,
          "inputs": [
            {
              "indexed": false,
              "internalType": "address",
              "name": "token",
              "type": "address"
            },
            {
              "indexed": false,
              "internalType": "uint256",
              "name": "amount",
              "type": "uint256"
            }
          ],
          "name": "TokensReleased",
          "type": "event"
        },
        {
          "inputs": [
            {
              "internalType": "address",
              "name": "",
              "type": "address"
            }
          ],
          "name": "Roles",
          "outputs": [
            {
              "internalType": "address",
              "name": "vesting_owner",
              "type": "address"
            },
            {
              "internalType": "address",
              "name": "advisor",
              "type": "address"
            },
            {
              "internalType": "address",
              "name": "mentor",
              "type": "address"
            },
            {
              "internalType": "address",
              "name": "partner",
              "type": "address"
            },
            {
              "internalType": "uint256",
              "name": "price_amount_of_advisor",
              "type": "uint256"
            },
            {
              "internalType": "uint256",
              "name": "price_amount_of_mentor",
              "type": "uint256"
            },
            {
              "internalType": "uint256",
              "name": "price_amount_of_partner",
              "type": "uint256"
            },
            {
              "internalType": "bool",
              "name": "mentorCanClaim",
              "type": "bool"
            },
            {
              "internalType": "bool",
              "name": "advisorCanClaim",
              "type": "bool"
            },
            {
              "internalType": "bool",
              "name": "mentorClaimed",
              "type": "bool"
            },
            {
              "internalType": "bool",
              "name": "advisorClaimed",
              "type": "bool"
            }
          ],
          "stateMutability": "view",
          "type": "function"
        },
        {
          "inputs": [],
          "name": "advisorsAddress",
          "outputs": [
            {
              "internalType": "address",
              "name": "",
              "type": "address"
            }
          ],
          "stateMutability": "view",
          "type": "function"
        },
        {
          "inputs": [
            {
              "internalType": "contract IERC20",
              "name": "token",
              "type": "address"
            }
          ],
          "name": "claim_advisor_vesting_amount",
          "outputs": [],
          "stateMutability": "nonpayable",
          "type": "function"
        },
        {
          "inputs": [
            {
              "internalType": "contract IERC20",
              "name": "token",
              "type": "address"
            }
          ],
          "name": "claim_mentor_vesting_amount",
          "outputs": [],
          "stateMutability": "nonpayable",
          "type": "function"
        },
        {
          "inputs": [],
          "name": "cliff",
          "outputs": [
            {
              "internalType": "uint256",
              "name": "",
              "type": "uint256"
            }
          ],
          "stateMutability": "view",
          "type": "function"
        },
        {
          "inputs": [],
          "name": "durations",
          "outputs": [
            {
              "internalType": "uint256",
              "name": "",
              "type": "uint256"
            }
          ],
          "stateMutability": "view",
          "type": "function"
        },
        {
          "inputs": [],
          "name": "getClaimStatusForAdvisor",
          "outputs": [
            {
              "internalType": "bool",
              "name": "",
              "type": "bool"
            }
          ],
          "stateMutability": "view",
          "type": "function"
        },
        {
          "inputs": [],
          "name": "getClaimStatusForMentor",
          "outputs": [
            {
              "internalType": "bool",
              "name": "",
              "type": "bool"
            }
          ],
          "stateMutability": "view",
          "type": "function"
        },
        {
          "inputs": [
            {
              "internalType": "contract IERC20",
              "name": "token",
              "type": "address"
            }
          ],
          "name": "getContractBalance",
          "outputs": [
            {
              "internalType": "uint256",
              "name": "",
              "type": "uint256"
            }
          ],
          "stateMutability": "view",
          "type": "function"
        },
        {
          "inputs": [],
          "name": "getTimeStamp",
          "outputs": [
            {
              "internalType": "uint256",
              "name": "",
              "type": "uint256"
            }
          ],
          "stateMutability": "view",
          "type": "function"
        },
        {
          "inputs": [],
          "name": "mentorsAddress",
          "outputs": [
            {
              "internalType": "address",
              "name": "",
              "type": "address"
            }
          ],
          "stateMutability": "view",
          "type": "function"
        },
        {
          "inputs": [],
          "name": "owner",
          "outputs": [
            {
              "internalType": "address",
              "name": "",
              "type": "address"
            }
          ],
          "stateMutability": "view",
          "type": "function"
        },
        {
          "inputs": [],
          "name": "partnersAddress",
          "outputs": [
            {
              "internalType": "address",
              "name": "",
              "type": "address"
            }
          ],
          "stateMutability": "view",
          "type": "function"
        },
        {
          "inputs": [
            {
              "internalType": "contract IERC20",
              "name": "token",
              "type": "address"
            }
          ],
          "name": "release",
          "outputs": [],
          "stateMutability": "nonpayable",
          "type": "function"
        },
        {
          "inputs": [
            {
              "internalType": "address",
              "name": "token",
              "type": "address"
            }
          ],
          "name": "released",
          "outputs": [
            {
              "internalType": "uint256",
              "name": "",
              "type": "uint256"
            }
          ],
          "stateMutability": "view",
          "type": "function"
        },
        {
          "inputs": [],
          "name": "renounceOwnership",
          "outputs": [],
          "stateMutability": "nonpayable",
          "type": "function"
        },
        {
          "inputs": [],
          "name": "revocables",
          "outputs": [
            {
              "internalType": "bool",
              "name": "",
              "type": "bool"
            }
          ],
          "stateMutability": "view",
          "type": "function"
        },
        {
          "inputs": [
            {
              "internalType": "contract IERC20",
              "name": "token",
              "type": "address"
            }
          ],
          "name": "revoke",
          "outputs": [],
          "stateMutability": "nonpayable",
          "type": "function"
        },
        {
          "inputs": [
            {
              "internalType": "address",
              "name": "token",
              "type": "address"
            }
          ],
          "name": "revoked",
          "outputs": [
            {
              "internalType": "bool",
              "name": "",
              "type": "bool"
            }
          ],
          "stateMutability": "view",
          "type": "function"
        },
        {
          "inputs": [],
          "name": "started",
          "outputs": [
            {
              "internalType": "uint256",
              "name": "",
              "type": "uint256"
            }
          ],
          "stateMutability": "view",
          "type": "function"
        },
        {
          "inputs": [
            {
              "internalType": "address",
              "name": "newOwner",
              "type": "address"
            }
          ],
          "name": "transferOwnership",
          "outputs": [],
          "stateMutability": "nonpayable",
          "type": "function"
        },
        {
          "inputs": [
            {
              "internalType": "contract IERC20",
              "name": "token",
              "type": "address"
            }
          ],
          "name": "vested",
          "outputs": [
            {
              "internalType": "uint256",
              "name": "",
              "type": "uint256"
            }
          ],
          "stateMutability": "view",
          "type": "function"
        }
      ],
      "evm": {
        "bytecode": {
          "linkReferences": {},
          "object": "6080604052600760025560056003556078600455620000214261012c6200039a565b6005553480156200003157600080fd5b5060405162001d0a38038062001d0a83398101604081905262000054916200025e565b6200006862000062620001d8565b620001dc565b60018054336001600160a01b031991821617918290556001600160a01b039091166000818152600d6020526040902080549092161790556005546004541115620000cf5760405162461bcd60e51b8152600401620000c69062000318565b60405180910390fd5b600060055411620000f45760405162461bcd60e51b8152600401620000c69062000363565b4262000111600554876200022c60201b62000cd91790919060201c565b11620001315760405162461bcd60e51b8152600401620000c690620002c9565b6009805460ff1916851515179055600554600855600454620001619086906200022c602090811b62000cd917901c565b600655600794909455600180546001600160a01b039081166000908152600d602052604080822060020180549684166001600160a01b0319978816179055835483168252808220840180549584169587169590951790945591548116825291902060030180549190941691161790915550620003bf565b3390565b600080546001600160a01b038381166001600160a01b0319831681178455604051919092169283917f8be0079c531659141344cd1fd0a4f28419497f9722a3daafe3b4186f6b6457e09190a35050565b60006200023a82846200039a565b9392505050565b80516001600160a01b03811681146200025957600080fd5b919050565b600080600080600060a0868803121562000276578081fd5b85519450602086015180151581146200028d578182fd5b93506200029d6040870162000241565b9250620002ad6060870162000241565b9150620002bd6080870162000241565b90509295509295909350565b6020808252602f908201527f546f6b656e56657374696e673a2066696e616c2074696d65206973206265666f60408201526e72652063757272656e742074696d6560881b606082015260800190565b6020808252602b908201527f546f6b656e56657374696e673a20636c696666206973206c6f6e67657220746860408201526a30b710323ab930ba34b7b760a91b606082015260800190565b6020808252601b908201527f546f6b656e56657374696e673a206475726174696f6e20697320300000000000604082015260600190565b60008219821115620003ba57634e487b7160e01b81526011600452602481fd5b500190565b61193b80620003cf6000396000f3fe608060405234801561001057600080fd5b50600436106101825760003560e01c80636a75f03d116100d8578063930a79c61161008c578063da235b2211610066578063da235b22146102c0578063f2fde38b146102c8578063fa01dc06146102db57610182565b8063930a79c6146102925780639852595c1461029a578063b71d010f146102ad57610182565b8063715018a6116100bd578063715018a61461026f57806374a8f103146102775780638da5cb5b1461028a57610182565b80636a75f03d146102545780637102b7281461025c57610182565b80631f2698ab1161013a57806343ab265f1161011457806343ab265f146102315780634a41d89d146102445780634fc0b3d01461024c57610182565b80631f2698ab146101ec5780633310455b146101f457806335e8acfb1461020757610182565b806313d033c01161016b57806313d033c0146101ba57806319165587146101cf57806319e2b0d3146101e457610182565b80630a8fc1e4146101875780630dc10a60146101a5575b600080fd5b61018f6102ee565b60405161019c9190611279565b60405180910390f35b6101ad6102f7565b60405161019c91906111e8565b6101c261031c565b60405161019c9190611833565b6101e26101dd366004611178565b610322565b005b61018f610535565b6101c261059f565b6101e2610202366004611178565b6105a5565b61021a610215366004611178565b6106c6565b60405161019c9b9a999897969594939291906111fc565b6101c261023f366004611178565b610739565b6101c26107c0565b61018f6107c6565b6101ad61082c565b6101c261026a366004611178565b610850565b6101e261087c565b6101e2610285366004611178565b6108c7565b6101ad610ae4565b6101ad610af3565b6101c26102a8366004611178565b610b17565b6101e26102bb366004611178565b610b32565b6101c2610c4a565b6101e26102d6366004611178565b610c4e565b61018f6102e9366004611178565b610cbc565b60095460ff1690565b600180546001600160a01b039081166000908152600d60205260409020909101541690565b60065490565b61032a610cec565b6001600160a01b031661033b610ae4565b6001600160a01b03161461036a5760405162461bcd60e51b81526004016103619061158a565b60405180910390fd5b600061037582610cf0565b905060006064600254836103899190611874565b6103939190611854565b905060006064600354846103a79190611874565b6103b19190611854565b600180546001600160a01b039081166000908152600d6020526040808220600501879055925490911681522060040181905560085490915042106104075760405162461bcd60e51b81526004016103619061152d565b60075442116104285760405162461bcd60e51b815260040161036190611699565b600083116104485760405162461bcd60e51b815260040161036190611382565b6001600160a01b0384166000908152600a602052604090205461046b9084610cd9565b6001600160a01b0385166000908152600a60205260409081902091909155517fc7798891864187665ac6dd119286e44ec13f014527aeeb2b8eb3fd413df93179906104b99086908690611260565b60405180910390a15050600180546001600160a01b039081166000908152600d60205260408082206007908101805460ff1916861790558454841683528183208101805461ff0019166101001790558454841683528183208101805462ff000019169055935490921681522001805463ff000000191690555050565b600180546001600160a01b039081166000908152600d60205260408120909201541633146105755760405162461bcd60e51b8152600401610361906115bf565b506001546001600160a01b03166000908152600d6020526040902060070154610100900460ff1690565b60075490565b6001546001600160a01b03166000908152600d60205260409020600701546301000000900460ff16156105ea5760405162461bcd60e51b8152600401610361906114f6565b600180546001600160a01b03166000908152600d6020526040902060070154610100900460ff161515146106305760405162461bcd60e51b815260040161036190611779565b600180546001600160a01b039081166000908152600d60205260409020909101541633146106705760405162461bcd60e51b8152600401610361906115bf565b600180546001600160a01b039081166000908152600d6020526040808220600701805463ff000000191663010000001790558354831682529020918201546004909201546106c392848316921690610d1c565b50565b600d60205260009081526040902080546001820154600283015460038401546004850154600586015460068701546007909701546001600160a01b0396871697958716969485169593909416939192909160ff80821691610100810482169162010000820481169163010000009004168b565b6040516370a0823160e01b81526000906001600160a01b038316906370a08231906107689030906004016111e8565b60206040518083038186803b15801561078057600080fd5b505afa158015610794573d6000803e3d6000fd5b505050506040513d601f19601f820116820180604052508101906107b891906111b4565b90505b919050565b60085490565b6001546001600160a01b039081166000908152600d602052604081206002015490911633146108075760405162461bcd60e51b81526004016103619061162b565b506001546001600160a01b03166000908152600d602052604090206007015460ff1690565b6001546001600160a01b039081166000908152600d60205260409020600301541690565b600060085442106108735760405162461bcd60e51b81526004016103619061134b565b6107b882610da4565b610884610cec565b6001600160a01b0316610895610ae4565b6001600160a01b0316146108bb5760405162461bcd60e51b81526004016103619061158a565b6108c56000610f3e565b565b6108cf610cec565b6001600160a01b03166108e0610ae4565b6001600160a01b0316146109065760405162461bcd60e51b81526004016103619061158a565b60085442106109275760405162461bcd60e51b815260040161036190611499565b60075442116109485760405162461bcd60e51b815260040161036190611416565b60095460ff1661096a5760405162461bcd60e51b8152600401610361906112b7565b6001600160a01b0381166000908152600b6020526040902054156109a05760405162461bcd60e51b8152600401610361906117d6565b6040516370a0823160e01b81526000906001600160a01b038316906370a08231906109cf9030906004016111e8565b60206040518083038186803b1580156109e757600080fd5b505afa1580156109fb573d6000803e3d6000fd5b505050506040513d601f19601f82011682018060405250810190610a1f91906111b4565b6001600160a01b0383166000908152600b60205260408120429055909150610a4683610cf0565b90506000610a548383610fa6565b6001600160a01b038086166000908152600c602090815260408083208590556001805485168452600d9092528083206007908101805460ff19169055915490931682529082902001805461ff0019169055519091507f39983c6d4d174a7aee564f449d4a5c3c7ac9649d72b7793c56901183996f8af690610ad69086906111e8565b60405180910390a150505050565b6000546001600160a01b031690565b6001546001600160a01b039081166000908152600d60205260409020600201541690565b6001600160a01b03166000908152600a602052604090205490565b6001546001600160a01b03166000908152600d602052604090206007015462010000900460ff1615610b765760405162461bcd60e51b8152600401610361906114f6565b600180546001600160a01b03166000908152600d602052604090206007015460ff16151514610bb75760405162461bcd60e51b8152600401610361906115f6565b6001546001600160a01b039081166000908152600d6020526040902060020154163314610bf65760405162461bcd60e51b81526004016103619061162b565b600180546001600160a01b039081166000908152600d6020526040808220600701805462ff00001916620100001790559254821681529190912060028101546005909101546106c392848116921690610d1c565b4290565b610c56610cec565b6001600160a01b0316610c67610ae4565b6001600160a01b031614610c8d5760405162461bcd60e51b81526004016103619061158a565b6001600160a01b038116610cb35760405162461bcd60e51b8152600401610361906112ee565b6106c381610f3e565b6001600160a01b03166000908152600b6020526040902054151590565b6000610ce5828461183c565b9392505050565b3390565b6001600160a01b0381166000908152600a60205260408120546107b890610d1684610da4565b90610fa6565b610d9f8363a9059cbb60e01b8484604051602401610d3b929190611260565b60408051601f198184030181529190526020810180517bffffffffffffffffffffffffffffffffffffffffffffffffffffffff167fffffffff0000000000000000000000000000000000000000000000000000000090931692909217909152610fb2565b505050565b600080826001600160a01b03166370a08231306040518263ffffffff1660e01b8152600401610dd391906111e8565b60206040518083038186803b158015610deb57600080fd5b505afa158015610dff573d6000803e3d6000fd5b505050506040513d601f19601f82011682018060405250810190610e2391906111b4565b6001600160a01b0384166000908152600c6020908152604080832054600a9092528220549293509091610e629190610e5c908590610cd9565b90610cd9565b9050600654421015610e79576000925050506107bb565b600854600754610e8891610cd9565b4210158015610ead57506001600160a01b0384166000908152600b6020526040902054155b15610ebb5791506107bb9050565b6001600160a01b0384166000908152600b602052604090205415610f20576008546007546001600160a01b0386166000908152600b6020526040902054610f179291610f1191610f0a91610fa6565b8490611041565b9061104d565b925050506107bb565b610f17600854610f11610f0a60075442610fa690919063ffffffff16565b600080546001600160a01b038381167fffffffffffffffffffffffff0000000000000000000000000000000000000000831681178455604051919092169283917f8be0079c531659141344cd1fd0a4f28419497f9722a3daafe3b4186f6b6457e09190a35050565b6000610ce58284611893565b6000611007826040518060400160405280602081526020017f5361666545524332303a206c6f772d6c6576656c2063616c6c206661696c6564815250856001600160a01b03166110599092919063ffffffff16565b805190915015610d9f57808060200190518101906110259190611194565b610d9f5760405162461bcd60e51b81526004016103619061171c565b6000610ce58284611874565b6000610ce58284611854565b60606110688484600085611070565b949350505050565b6060824710156110925760405162461bcd60e51b8152600401610361906113b9565b61109b85611130565b6110b75760405162461bcd60e51b815260040161036190611662565b600080866001600160a01b031685876040516110d391906111cc565b60006040518083038185875af1925050503d8060008114611110576040519150601f19603f3d011682016040523d82523d6000602084013e611115565b606091505b509150915061112582828661113f565b979650505050505050565b6001600160a01b03163b151590565b6060831561114e575081610ce5565b82511561115e5782518084602001fd5b8160405162461bcd60e51b81526004016103619190611284565b600060208284031215611189578081fd5b8135610ce5816118f0565b6000602082840312156111a5578081fd5b81518015158114610ce5578182fd5b6000602082840312156111c5578081fd5b5051919050565b600082516111de8184602087016118aa565b9190910192915050565b6001600160a01b0391909116815260200190565b6001600160a01b039b8c168152998b1660208b0152978a1660408a0152959098166060880152608087019390935260a086019190915260c0850152151560e08401529215156101008301529115156101208201529015156101408201526101600190565b6001600160a01b03929092168252602082015260400190565b901515815260200190565b60006020825282518060208401526112a38160408501602087016118aa565b601f01601f19169190910160400192915050565b6020808252601b908201527f546f6b656e56657374696e673a2063616e6e6f74207265766f6b650000000000604082015260600190565b60208082526026908201527f4f776e61626c653a206e6577206f776e657220697320746865207a65726f206160408201527f6464726573730000000000000000000000000000000000000000000000000000606082015260800190565b6020808252601f908201527f7468652076657374696e672074696d6520706572696f64206973206f76657200604082015260600190565b6020808252601f908201527f546f6b656e56657374696e673a206e6f20746f6b656e73206172652064756500604082015260600190565b60208082526026908201527f416464726573733a20696e73756666696369656e742062616c616e636520666f60408201527f722063616c6c0000000000000000000000000000000000000000000000000000606082015260800190565b60208082526042908201527f56657374696e6720706572696f64206973206e6f74207965742073746172746560408201527f64202121214f776e65722063616e6e6f74207265766f6b652074686520746f6b60608201527f656e000000000000000000000000000000000000000000000000000000000000608082015260a00190565b60208082526037908201527f56657374696e6720706572696f64206973206f766572202121214f776e65722060408201527f63616e6e6f74207265766f6b652074686520746f6b656e000000000000000000606082015260800190565b60208082526013908201527f416c726561647920436c61696d65642021212100000000000000000000000000604082015260600190565b60208082526038908201527f56657374696e6720706572696f64206973206f766572202121214f776e65722060408201527f63616e6e6f742072656c656173652074686520746f6b656e0000000000000000606082015260800190565b6020808252818101527f4f776e61626c653a2063616c6c6572206973206e6f7420746865206f776e6572604082015260600190565b60208082526013908201527f596f7520617265206e6f742061647669736f7200000000000000000000000000604082015260600190565b6020808252818101527f4d656e746f722063616e6e6f7420636c61696d20746865697220726577617264604082015260600190565b60208082526012908201527f596f7520617265206e6f74206d656e746f720000000000000000000000000000604082015260600190565b6020808252601d908201527f416464726573733a2063616c6c20746f206e6f6e2d636f6e7472616374000000604082015260600190565b60208082526043908201527f56657374696e6720706572696f64206973206e6f74207965742073746172746560408201527f64202121214f776e65722063616e6e6f742072656c656173652074686520746f60608201527f6b656e0000000000000000000000000000000000000000000000000000000000608082015260a00190565b6020808252602a908201527f5361666545524332303a204552433230206f7065726174696f6e20646964206e60408201527f6f74207375636365656400000000000000000000000000000000000000000000606082015260800190565b60208082526021908201527f41647669736f722063616e6e6f7420636c61696d20746865697220726577617260408201527f6400000000000000000000000000000000000000000000000000000000000000606082015260800190565b60208082526023908201527f546f6b656e56657374696e673a20746f6b656e20616c7265616479207265766f60408201527f6b65640000000000000000000000000000000000000000000000000000000000606082015260800190565b90815260200190565b6000821982111561184f5761184f6118da565b500190565b60008261186f57634e487b7160e01b81526012600452602481fd5b500490565b600081600019048311821515161561188e5761188e6118da565b500290565b6000828210156118a5576118a56118da565b500390565b60005b838110156118c55781810151838201526020016118ad565b838111156118d4576000848401525b50505050565b634e487b7160e01b600052601160045260246000fd5b6001600160a01b03811681146106c357600080fdfea264697066735822122036479a3becacf1ea731ba11a1e3d8701b01a0fa68854d6417640b7e0be24893b64736f6c63430008010033",
          "opcodes": "PUSH1 0x80 PUSH1 0x40 MSTORE PUSH1 0x7 PUSH1 0x2 SSTORE PUSH1 0x5 PUSH1 0x3 SSTORE PUSH1 0x78 PUSH1 0x4 SSTORE PUSH3 0x21 TIMESTAMP PUSH2 0x12C PUSH3 0x39A JUMP JUMPDEST PUSH1 0x5 SSTORE CALLVALUE DUP1 ISZERO PUSH3 0x31 JUMPI PUSH1 0x0 DUP1 REVERT JUMPDEST POP PUSH1 0x40 MLOAD PUSH3 0x1D0A CODESIZE SUB DUP1 PUSH3 0x1D0A DUP4 CODECOPY DUP2 ADD PUSH1 0x40 DUP2 SWAP1 MSTORE PUSH3 0x54 SWAP2 PUSH3 0x25E JUMP JUMPDEST PUSH3 0x68 PUSH3 0x62 PUSH3 0x1D8 JUMP JUMPDEST PUSH3 0x1DC JUMP JUMPDEST PUSH1 0x1 DUP1 SLOAD CALLER PUSH1 0x1 PUSH1 0x1 PUSH1 0xA0 SHL SUB NOT SWAP2 DUP3 AND OR SWAP2 DUP3 SWAP1 SSTORE PUSH1 0x1 PUSH1 0x1 PUSH1 0xA0 SHL SUB SWAP1 SWAP2 AND PUSH1 0x0 DUP2 DUP2 MSTORE PUSH1 0xD PUSH1 0x20 MSTORE PUSH1 0x40 SWAP1 KECCAK256 DUP1 SLOAD SWAP1 SWAP3 AND OR SWAP1 SSTORE PUSH1 0x5 SLOAD PUSH1 0x4 SLOAD GT ISZERO PUSH3 0xCF JUMPI PUSH1 0x40 MLOAD PUSH3 0x461BCD PUSH1 0xE5 SHL DUP2 MSTORE PUSH1 0x4 ADD PUSH3 0xC6 SWAP1 PUSH3 0x318 JUMP JUMPDEST PUSH1 0x40 MLOAD DUP1 SWAP2 SUB SWAP1 REVERT JUMPDEST PUSH1 0x0 PUSH1 0x5 SLOAD GT PUSH3 0xF4 JUMPI PUSH1 0x40 MLOAD PUSH3 0x461BCD PUSH1 0xE5 SHL DUP2 MSTORE PUSH1 0x4 ADD PUSH3 0xC6 SWAP1 PUSH3 0x363 JUMP JUMPDEST TIMESTAMP PUSH3 0x111 PUSH1 0x5 SLOAD DUP8 PUSH3 0x22C PUSH1 0x20 SHL PUSH3 0xCD9 OR SWAP1 SWAP2 SWAP1 PUSH1 0x20 SHR JUMP JUMPDEST GT PUSH3 0x131 JUMPI PUSH1 0x40 MLOAD PUSH3 0x461BCD PUSH1 0xE5 SHL DUP2 MSTORE PUSH1 0x4 ADD PUSH3 0xC6 SWAP1 PUSH3 0x2C9 JUMP JUMPDEST PUSH1 0x9 DUP1 SLOAD PUSH1 0xFF NOT AND DUP6 ISZERO ISZERO OR SWAP1 SSTORE PUSH1 0x5 SLOAD PUSH1 0x8 SSTORE PUSH1 0x4 SLOAD PUSH3 0x161 SWAP1 DUP7 SWAP1 PUSH3 0x22C PUSH1 0x20 SWAP1 DUP2 SHL PUSH3 0xCD9 OR SWAP1 SHR JUMP JUMPDEST PUSH1 0x6 SSTORE PUSH1 0x7 SWAP5 SWAP1 SWAP5 SSTORE PUSH1 0x1 DUP1 SLOAD PUSH1 0x1 PUSH1 0x1 PUSH1 0xA0 SHL SUB SWAP1 DUP2 AND PUSH1 0x0 SWAP1 DUP2 MSTORE PUSH1 0xD PUSH1 0x20 MSTORE PUSH1 0x40 DUP1 DUP3 KECCAK256 PUSH1 0x2 ADD DUP1 SLOAD SWAP7 DUP5 AND PUSH1 0x1 PUSH1 0x1 PUSH1 0xA0 SHL SUB NOT SWAP8 DUP9 AND OR SWAP1 SSTORE DUP4 SLOAD DUP4 AND DUP3 MSTORE DUP1 DUP3 KECCAK256 DUP5 ADD DUP1 SLOAD SWAP6 DUP5 AND SWAP6 DUP8 AND SWAP6 SWAP1 SWAP6 OR SWAP1 SWAP5 SSTORE SWAP2 SLOAD DUP2 AND DUP3 MSTORE SWAP2 SWAP1 KECCAK256 PUSH1 0x3 ADD DUP1 SLOAD SWAP2 SWAP1 SWAP5 AND SWAP2 AND OR SWAP1 SWAP2 SSTORE POP PUSH3 0x3BF JUMP JUMPDEST CALLER SWAP1 JUMP JUMPDEST PUSH1 0x0 DUP1 SLOAD PUSH1 0x1 PUSH1 0x1 PUSH1 0xA0 SHL SUB DUP4 DUP2 AND PUSH1 0x1 PUSH1 0x1 PUSH1 0xA0 SHL SUB NOT DUP4 AND DUP2 OR DUP5 SSTORE PUSH1 0x40 MLOAD SWAP2 SWAP1 SWAP3 AND SWAP3 DUP4 SWAP2 PUSH32 0x8BE0079C531659141344CD1FD0A4F28419497F9722A3DAAFE3B4186F6B6457E0 SWAP2 SWAP1 LOG3 POP POP JUMP JUMPDEST PUSH1 0x0 PUSH3 0x23A DUP3 DUP5 PUSH3 0x39A JUMP JUMPDEST SWAP4 SWAP3 POP POP POP JUMP JUMPDEST DUP1 MLOAD PUSH1 0x1 PUSH1 0x1 PUSH1 0xA0 SHL SUB DUP2 AND DUP2 EQ PUSH3 0x259 JUMPI PUSH1 0x0 DUP1 REVERT JUMPDEST SWAP2 SWAP1 POP JUMP JUMPDEST PUSH1 0x0 DUP1 PUSH1 0x0 DUP1 PUSH1 0x0 PUSH1 0xA0 DUP7 DUP9 SUB SLT ISZERO PUSH3 0x276 JUMPI DUP1 DUP2 REVERT JUMPDEST DUP6 MLOAD SWAP5 POP PUSH1 0x20 DUP7 ADD MLOAD DUP1 ISZERO ISZERO DUP2 EQ PUSH3 0x28D JUMPI DUP2 DUP3 REVERT JUMPDEST SWAP4 POP PUSH3 0x29D PUSH1 0x40 DUP8 ADD PUSH3 0x241 JUMP JUMPDEST SWAP3 POP PUSH3 0x2AD PUSH1 0x60 DUP8 ADD PUSH3 0x241 JUMP JUMPDEST SWAP2 POP PUSH3 0x2BD PUSH1 0x80 DUP8 ADD PUSH3 0x241 JUMP JUMPDEST SWAP1 POP SWAP3 SWAP6 POP SWAP3 SWAP6 SWAP1 SWAP4 POP JUMP JUMPDEST PUSH1 0x20 DUP1 DUP3 MSTORE PUSH1 0x2F SWAP1 DUP3 ADD MSTORE PUSH32 0x546F6B656E56657374696E673A2066696E616C2074696D65206973206265666F PUSH1 0x40 DUP3 ADD MSTORE PUSH15 0x72652063757272656E742074696D65 PUSH1 0x88 SHL PUSH1 0x60 DUP3 ADD MSTORE PUSH1 0x80 ADD SWAP1 JUMP JUMPDEST PUSH1 0x20 DUP1 DUP3 MSTORE PUSH1 0x2B SWAP1 DUP3 ADD MSTORE PUSH32 0x546F6B656E56657374696E673A20636C696666206973206C6F6E676572207468 PUSH1 0x40 DUP3 ADD MSTORE PUSH11 0x30B710323AB930BA34B7B7 PUSH1 0xA9 SHL PUSH1 0x60 DUP3 ADD MSTORE PUSH1 0x80 ADD SWAP1 JUMP JUMPDEST PUSH1 0x20 DUP1 DUP3 MSTORE PUSH1 0x1B SWAP1 DUP3 ADD MSTORE PUSH32 0x546F6B656E56657374696E673A206475726174696F6E20697320300000000000 PUSH1 0x40 DUP3 ADD MSTORE PUSH1 0x60 ADD SWAP1 JUMP JUMPDEST PUSH1 0x0 DUP3 NOT DUP3 GT ISZERO PUSH3 0x3BA JUMPI PUSH4 0x4E487B71 PUSH1 0xE0 SHL DUP2 MSTORE PUSH1 0x11 PUSH1 0x4 MSTORE PUSH1 0x24 DUP2 REVERT JUMPDEST POP ADD SWAP1 JUMP JUMPDEST PUSH2 0x193B DUP1 PUSH3 0x3CF PUSH1 0x0 CODECOPY PUSH1 0x0 RETURN INVALID PUSH1 0x80 PUSH1 0x40 MSTORE CALLVALUE DUP1 ISZERO PUSH2 0x10 JUMPI PUSH1 0x0 DUP1 REVERT JUMPDEST POP PUSH1 0x4 CALLDATASIZE LT PUSH2 0x182 JUMPI PUSH1 0x0 CALLDATALOAD PUSH1 0xE0 SHR DUP1 PUSH4 0x6A75F03D GT PUSH2 0xD8 JUMPI DUP1 PUSH4 0x930A79C6 GT PUSH2 0x8C JUMPI DUP1 PUSH4 0xDA235B22 GT PUSH2 0x66 JUMPI DUP1 PUSH4 0xDA235B22 EQ PUSH2 0x2C0 JUMPI DUP1 PUSH4 0xF2FDE38B EQ PUSH2 0x2C8 JUMPI DUP1 PUSH4 0xFA01DC06 EQ PUSH2 0x2DB JUMPI PUSH2 0x182 JUMP JUMPDEST DUP1 PUSH4 0x930A79C6 EQ PUSH2 0x292 JUMPI DUP1 PUSH4 0x9852595C EQ PUSH2 0x29A JUMPI DUP1 PUSH4 0xB71D010F EQ PUSH2 0x2AD JUMPI PUSH2 0x182 JUMP JUMPDEST DUP1 PUSH4 0x715018A6 GT PUSH2 0xBD JUMPI DUP1 PUSH4 0x715018A6 EQ PUSH2 0x26F JUMPI DUP1 PUSH4 0x74A8F103 EQ PUSH2 0x277 JUMPI DUP1 PUSH4 0x8DA5CB5B EQ PUSH2 0x28A JUMPI PUSH2 0x182 JUMP JUMPDEST DUP1 PUSH4 0x6A75F03D EQ PUSH2 0x254 JUMPI DUP1 PUSH4 0x7102B728 EQ PUSH2 0x25C JUMPI PUSH2 0x182 JUMP JUMPDEST DUP1 PUSH4 0x1F2698AB GT PUSH2 0x13A JUMPI DUP1 PUSH4 0x43AB265F GT PUSH2 0x114 JUMPI DUP1 PUSH4 0x43AB265F EQ PUSH2 0x231 JUMPI DUP1 PUSH4 0x4A41D89D EQ PUSH2 0x244 JUMPI DUP1 PUSH4 0x4FC0B3D0 EQ PUSH2 0x24C JUMPI PUSH2 0x182 JUMP JUMPDEST DUP1 PUSH4 0x1F2698AB EQ PUSH2 0x1EC JUMPI DUP1 PUSH4 0x3310455B EQ PUSH2 0x1F4 JUMPI DUP1 PUSH4 0x35E8ACFB EQ PUSH2 0x207 JUMPI PUSH2 0x182 JUMP JUMPDEST DUP1 PUSH4 0x13D033C0 GT PUSH2 0x16B JUMPI DUP1 PUSH4 0x13D033C0 EQ PUSH2 0x1BA JUMPI DUP1 PUSH4 0x19165587 EQ PUSH2 0x1CF JUMPI DUP1 PUSH4 0x19E2B0D3 EQ PUSH2 0x1E4 JUMPI PUSH2 0x182 JUMP JUMPDEST DUP1 PUSH4 0xA8FC1E4 EQ PUSH2 0x187 JUMPI DUP1 PUSH4 0xDC10A60 EQ PUSH2 0x1A5 JUMPI JUMPDEST PUSH1 0x0 DUP1 REVERT JUMPDEST PUSH2 0x18F PUSH2 0x2EE JUMP JUMPDEST PUSH1 0x40 MLOAD PUSH2 0x19C SWAP2 SWAP1 PUSH2 0x1279 JUMP JUMPDEST PUSH1 0x40 MLOAD DUP1 SWAP2 SUB SWAP1 RETURN JUMPDEST PUSH2 0x1AD PUSH2 0x2F7 JUMP JUMPDEST PUSH1 0x40 MLOAD PUSH2 0x19C SWAP2 SWAP1 PUSH2 0x11E8 JUMP JUMPDEST PUSH2 0x1C2 PUSH2 0x31C JUMP JUMPDEST PUSH1 0x40 MLOAD PUSH2 0x19C SWAP2 SWAP1 PUSH2 0x1833 JUMP JUMPDEST PUSH2 0x1E2 PUSH2 0x1DD CALLDATASIZE PUSH1 0x4 PUSH2 0x1178 JUMP JUMPDEST PUSH2 0x322 JUMP JUMPDEST STOP JUMPDEST PUSH2 0x18F PUSH2 0x535 JUMP JUMPDEST PUSH2 0x1C2 PUSH2 0x59F JUMP JUMPDEST PUSH2 0x1E2 PUSH2 0x202 CALLDATASIZE PUSH1 0x4 PUSH2 0x1178 JUMP JUMPDEST PUSH2 0x5A5 JUMP JUMPDEST PUSH2 0x21A PUSH2 0x215 CALLDATASIZE PUSH1 0x4 PUSH2 0x1178 JUMP JUMPDEST PUSH2 0x6C6 JUMP JUMPDEST PUSH1 0x40 MLOAD PUSH2 0x19C SWAP12 SWAP11 SWAP10 SWAP9 SWAP8 SWAP7 SWAP6 SWAP5 SWAP4 SWAP3 SWAP2 SWAP1 PUSH2 0x11FC JUMP JUMPDEST PUSH2 0x1C2 PUSH2 0x23F CALLDATASIZE PUSH1 0x4 PUSH2 0x1178 JUMP JUMPDEST PUSH2 0x739 JUMP JUMPDEST PUSH2 0x1C2 PUSH2 0x7C0 JUMP JUMPDEST PUSH2 0x18F PUSH2 0x7C6 JUMP JUMPDEST PUSH2 0x1AD PUSH2 0x82C JUMP JUMPDEST PUSH2 0x1C2 PUSH2 0x26A CALLDATASIZE PUSH1 0x4 PUSH2 0x1178 JUMP JUMPDEST PUSH2 0x850 JUMP JUMPDEST PUSH2 0x1E2 PUSH2 0x87C JUMP JUMPDEST PUSH2 0x1E2 PUSH2 0x285 CALLDATASIZE PUSH1 0x4 PUSH2 0x1178 JUMP JUMPDEST PUSH2 0x8C7 JUMP JUMPDEST PUSH2 0x1AD PUSH2 0xAE4 JUMP JUMPDEST PUSH2 0x1AD PUSH2 0xAF3 JUMP JUMPDEST PUSH2 0x1C2 PUSH2 0x2A8 CALLDATASIZE PUSH1 0x4 PUSH2 0x1178 JUMP JUMPDEST PUSH2 0xB17 JUMP JUMPDEST PUSH2 0x1E2 PUSH2 0x2BB CALLDATASIZE PUSH1 0x4 PUSH2 0x1178 JUMP JUMPDEST PUSH2 0xB32 JUMP JUMPDEST PUSH2 0x1C2 PUSH2 0xC4A JUMP JUMPDEST PUSH2 0x1E2 PUSH2 0x2D6 CALLDATASIZE PUSH1 0x4 PUSH2 0x1178 JUMP JUMPDEST PUSH2 0xC4E JUMP JUMPDEST PUSH2 0x18F PUSH2 0x2E9 CALLDATASIZE PUSH1 0x4 PUSH2 0x1178 JUMP JUMPDEST PUSH2 0xCBC JUMP JUMPDEST PUSH1 0x9 SLOAD PUSH1 0xFF AND SWAP1 JUMP JUMPDEST PUSH1 0x1 DUP1 SLOAD PUSH1 0x1 PUSH1 0x1 PUSH1 0xA0 SHL SUB SWAP1 DUP2 AND PUSH1 0x0 SWAP1 DUP2 MSTORE PUSH1 0xD PUSH1 0x20 MSTORE PUSH1 0x40 SWAP1 KECCAK256 SWAP1 SWAP2 ADD SLOAD AND SWAP1 JUMP JUMPDEST PUSH1 0x6 SLOAD SWAP1 JUMP JUMPDEST PUSH2 0x32A PUSH2 0xCEC JUMP JUMPDEST PUSH1 0x1 PUSH1 0x1 PUSH1 0xA0 SHL SUB AND PUSH2 0x33B PUSH2 0xAE4 JUMP JUMPDEST PUSH1 0x1 PUSH1 0x1 PUSH1 0xA0 SHL SUB AND EQ PUSH2 0x36A JUMPI PUSH1 0x40 MLOAD PUSH3 0x461BCD PUSH1 0xE5 SHL DUP2 MSTORE PUSH1 0x4 ADD PUSH2 0x361 SWAP1 PUSH2 0x158A JUMP JUMPDEST PUSH1 0x40 MLOAD DUP1 SWAP2 SUB SWAP1 REVERT JUMPDEST PUSH1 0x0 PUSH2 0x375 DUP3 PUSH2 0xCF0 JUMP JUMPDEST SWAP1 POP PUSH1 0x0 PUSH1 0x64 PUSH1 0x2 SLOAD DUP4 PUSH2 0x389 SWAP2 SWAP1 PUSH2 0x1874 JUMP JUMPDEST PUSH2 0x393 SWAP2 SWAP1 PUSH2 0x1854 JUMP JUMPDEST SWAP1 POP PUSH1 0x0 PUSH1 0x64 PUSH1 0x3 SLOAD DUP5 PUSH2 0x3A7 SWAP2 SWAP1 PUSH2 0x1874 JUMP JUMPDEST PUSH2 0x3B1 SWAP2 SWAP1 PUSH2 0x1854 JUMP JUMPDEST PUSH1 0x1 DUP1 SLOAD PUSH1 0x1 PUSH1 0x1 PUSH1 0xA0 SHL SUB SWAP1 DUP2 AND PUSH1 0x0 SWAP1 DUP2 MSTORE PUSH1 0xD PUSH1 0x20 MSTORE PUSH1 0x40 DUP1 DUP3 KECCAK256 PUSH1 0x5 ADD DUP8 SWAP1 SSTORE SWAP3 SLOAD SWAP1 SWAP2 AND DUP2 MSTORE KECCAK256 PUSH1 0x4 ADD DUP2 SWAP1 SSTORE PUSH1 0x8 SLOAD SWAP1 SWAP2 POP TIMESTAMP LT PUSH2 0x407 JUMPI PUSH1 0x40 MLOAD PUSH3 0x461BCD PUSH1 0xE5 SHL DUP2 MSTORE PUSH1 0x4 ADD PUSH2 0x361 SWAP1 PUSH2 0x152D JUMP JUMPDEST PUSH1 0x7 SLOAD TIMESTAMP GT PUSH2 0x428 JUMPI PUSH1 0x40 MLOAD PUSH3 0x461BCD PUSH1 0xE5 SHL DUP2 MSTORE PUSH1 0x4 ADD PUSH2 0x361 SWAP1 PUSH2 0x1699 JUMP JUMPDEST PUSH1 0x0 DUP4 GT PUSH2 0x448 JUMPI PUSH1 0x40 MLOAD PUSH3 0x461BCD PUSH1 0xE5 SHL DUP2 MSTORE PUSH1 0x4 ADD PUSH2 0x361 SWAP1 PUSH2 0x1382 JUMP JUMPDEST PUSH1 0x1 PUSH1 0x1 PUSH1 0xA0 SHL SUB DUP5 AND PUSH1 0x0 SWAP1 DUP2 MSTORE PUSH1 0xA PUSH1 0x20 MSTORE PUSH1 0x40 SWAP1 KECCAK256 SLOAD PUSH2 0x46B SWAP1 DUP5 PUSH2 0xCD9 JUMP JUMPDEST PUSH1 0x1 PUSH1 0x1 PUSH1 0xA0 SHL SUB DUP6 AND PUSH1 0x0 SWAP1 DUP2 MSTORE PUSH1 0xA PUSH1 0x20 MSTORE PUSH1 0x40 SWAP1 DUP2 SWAP1 KECCAK256 SWAP2 SWAP1 SWAP2 SSTORE MLOAD PUSH32 0xC7798891864187665AC6DD119286E44EC13F014527AEEB2B8EB3FD413DF93179 SWAP1 PUSH2 0x4B9 SWAP1 DUP7 SWAP1 DUP7 SWAP1 PUSH2 0x1260 JUMP JUMPDEST PUSH1 0x40 MLOAD DUP1 SWAP2 SUB SWAP1 LOG1 POP POP PUSH1 0x1 DUP1 SLOAD PUSH1 0x1 PUSH1 0x1 PUSH1 0xA0 SHL SUB SWAP1 DUP2 AND PUSH1 0x0 SWAP1 DUP2 MSTORE PUSH1 0xD PUSH1 0x20 MSTORE PUSH1 0x40 DUP1 DUP3 KECCAK256 PUSH1 0x7 SWAP1 DUP2 ADD DUP1 SLOAD PUSH1 0xFF NOT AND DUP7 OR SWAP1 SSTORE DUP5 SLOAD DUP5 AND DUP4 MSTORE DUP2 DUP4 KECCAK256 DUP2 ADD DUP1 SLOAD PUSH2 0xFF00 NOT AND PUSH2 0x100 OR SWAP1 SSTORE DUP5 SLOAD DUP5 AND DUP4 MSTORE DUP2 DUP4 KECCAK256 DUP2 ADD DUP1 SLOAD PUSH3 0xFF0000 NOT AND SWAP1 SSTORE SWAP4 SLOAD SWAP1 SWAP3 AND DUP2 MSTORE KECCAK256 ADD DUP1 SLOAD PUSH4 0xFF000000 NOT AND SWAP1 SSTORE POP POP JUMP JUMPDEST PUSH1 0x1 DUP1 SLOAD PUSH1 0x1 PUSH1 0x1 PUSH1 0xA0 SHL SUB SWAP1 DUP2 AND PUSH1 0x0 SWAP1 DUP2 MSTORE PUSH1 0xD PUSH1 0x20 MSTORE PUSH1 0x40 DUP2 KECCAK256 SWAP1 SWAP3 ADD SLOAD AND CALLER EQ PUSH2 0x575 JUMPI PUSH1 0x40 MLOAD PUSH3 0x461BCD PUSH1 0xE5 SHL DUP2 MSTORE PUSH1 0x4 ADD PUSH2 0x361 SWAP1 PUSH2 0x15BF JUMP JUMPDEST POP PUSH1 0x1 SLOAD PUSH1 0x1 PUSH1 0x1 PUSH1 0xA0 SHL SUB AND PUSH1 0x0 SWAP1 DUP2 MSTORE PUSH1 0xD PUSH1 0x20 MSTORE PUSH1 0x40 SWAP1 KECCAK256 PUSH1 0x7 ADD SLOAD PUSH2 0x100 SWAP1 DIV PUSH1 0xFF AND SWAP1 JUMP JUMPDEST PUSH1 0x7 SLOAD SWAP1 JUMP JUMPDEST PUSH1 0x1 SLOAD PUSH1 0x1 PUSH1 0x1 PUSH1 0xA0 SHL SUB AND PUSH1 0x0 SWAP1 DUP2 MSTORE PUSH1 0xD PUSH1 0x20 MSTORE PUSH1 0x40 SWAP1 KECCAK256 PUSH1 0x7 ADD SLOAD PUSH4 0x1000000 SWAP1 DIV PUSH1 0xFF AND ISZERO PUSH2 0x5EA JUMPI PUSH1 0x40 MLOAD PUSH3 0x461BCD PUSH1 0xE5 SHL DUP2 MSTORE PUSH1 0x4 ADD PUSH2 0x361 SWAP1 PUSH2 0x14F6 JUMP JUMPDEST PUSH1 0x1 DUP1 SLOAD PUSH1 0x1 PUSH1 0x1 PUSH1 0xA0 SHL SUB AND PUSH1 0x0 SWAP1 DUP2 MSTORE PUSH1 0xD PUSH1 0x20 MSTORE PUSH1 0x40 SWAP1 KECCAK256 PUSH1 0x7 ADD SLOAD PUSH2 0x100 SWAP1 DIV PUSH1 0xFF AND ISZERO ISZERO EQ PUSH2 0x630 JUMPI PUSH1 0x40 MLOAD PUSH3 0x461BCD PUSH1 0xE5 SHL DUP2 MSTORE PUSH1 0x4 ADD PUSH2 0x361 SWAP1 PUSH2 0x1779 JUMP JUMPDEST PUSH1 0x1 DUP1 SLOAD PUSH1 0x1 PUSH1 0x1 PUSH1 0xA0 SHL SUB SWAP1 DUP2 AND PUSH1 0x0 SWAP1 DUP2 MSTORE PUSH1 0xD PUSH1 0x20 MSTORE PUSH1 0x40 SWAP1 KECCAK256 SWAP1 SWAP2 ADD SLOAD AND CALLER EQ PUSH2 0x670 JUMPI PUSH1 0x40 MLOAD PUSH3 0x461BCD PUSH1 0xE5 SHL DUP2 MSTORE PUSH1 0x4 ADD PUSH2 0x361 SWAP1 PUSH2 0x15BF JUMP JUMPDEST PUSH1 0x1 DUP1 SLOAD PUSH1 0x1 PUSH1 0x1 PUSH1 0xA0 SHL SUB SWAP1 DUP2 AND PUSH1 0x0 SWAP1 DUP2 MSTORE PUSH1 0xD PUSH1 0x20 MSTORE PUSH1 0x40 DUP1 DUP3 KECCAK256 PUSH1 0x7 ADD DUP1 SLOAD PUSH4 0xFF000000 NOT AND PUSH4 0x1000000 OR SWAP1 SSTORE DUP4 SLOAD DUP4 AND DUP3 MSTORE SWAP1 KECCAK256 SWAP2 DUP3 ADD SLOAD PUSH1 0x4 SWAP1 SWAP3 ADD SLOAD PUSH2 0x6C3 SWAP3 DUP5 DUP4 AND SWAP3 AND SWAP1 PUSH2 0xD1C JUMP JUMPDEST POP JUMP JUMPDEST PUSH1 0xD PUSH1 0x20 MSTORE PUSH1 0x0 SWAP1 DUP2 MSTORE PUSH1 0x40 SWAP1 KECCAK256 DUP1 SLOAD PUSH1 0x1 DUP3 ADD SLOAD PUSH1 0x2 DUP4 ADD SLOAD PUSH1 0x3 DUP5 ADD SLOAD PUSH1 0x4 DUP6 ADD SLOAD PUSH1 0x5 DUP7 ADD SLOAD PUSH1 0x6 DUP8 ADD SLOAD PUSH1 0x7 SWAP1 SWAP8 ADD SLOAD PUSH1 0x1 PUSH1 0x1 PUSH1 0xA0 SHL SUB SWAP7 DUP8 AND SWAP8 SWAP6 DUP8 AND SWAP7 SWAP5 DUP6 AND SWAP6 SWAP4 SWAP1 SWAP5 AND SWAP4 SWAP2 SWAP3 SWAP1 SWAP2 PUSH1 0xFF DUP1 DUP3 AND SWAP2 PUSH2 0x100 DUP2 DIV DUP3 AND SWAP2 PUSH3 0x10000 DUP3 DIV DUP2 AND SWAP2 PUSH4 0x1000000 SWAP1 DIV AND DUP12 JUMP JUMPDEST PUSH1 0x40 MLOAD PUSH4 0x70A08231 PUSH1 0xE0 SHL DUP2 MSTORE PUSH1 0x0 SWAP1 PUSH1 0x1 PUSH1 0x1 PUSH1 0xA0 SHL SUB DUP4 AND SWAP1 PUSH4 0x70A08231 SWAP1 PUSH2 0x768 SWAP1 ADDRESS SWAP1 PUSH1 0x4 ADD PUSH2 0x11E8 JUMP JUMPDEST PUSH1 0x20 PUSH1 0x40 MLOAD DUP1 DUP4 SUB DUP2 DUP7 DUP1 EXTCODESIZE ISZERO DUP1 ISZERO PUSH2 0x780 JUMPI PUSH1 0x0 DUP1 REVERT JUMPDEST POP GAS STATICCALL ISZERO DUP1 ISZERO PUSH2 0x794 JUMPI RETURNDATASIZE PUSH1 0x0 DUP1 RETURNDATACOPY RETURNDATASIZE PUSH1 0x0 REVERT JUMPDEST POP POP POP POP PUSH1 0x40 MLOAD RETURNDATASIZE PUSH1 0x1F NOT PUSH1 0x1F DUP3 ADD AND DUP3 ADD DUP1 PUSH1 0x40 MSTORE POP DUP2 ADD SWAP1 PUSH2 0x7B8 SWAP2 SWAP1 PUSH2 0x11B4 JUMP JUMPDEST SWAP1 POP JUMPDEST SWAP2 SWAP1 POP JUMP JUMPDEST PUSH1 0x8 SLOAD SWAP1 JUMP JUMPDEST PUSH1 0x1 SLOAD PUSH1 0x1 PUSH1 0x1 PUSH1 0xA0 SHL SUB SWAP1 DUP2 AND PUSH1 0x0 SWAP1 DUP2 MSTORE PUSH1 0xD PUSH1 0x20 MSTORE PUSH1 0x40 DUP2 KECCAK256 PUSH1 0x2 ADD SLOAD SWAP1 SWAP2 AND CALLER EQ PUSH2 0x807 JUMPI PUSH1 0x40 MLOAD PUSH3 0x461BCD PUSH1 0xE5 SHL DUP2 MSTORE PUSH1 0x4 ADD PUSH2 0x361 SWAP1 PUSH2 0x162B JUMP JUMPDEST POP PUSH1 0x1 SLOAD PUSH1 0x1 PUSH1 0x1 PUSH1 0xA0 SHL SUB AND PUSH1 0x0 SWAP1 DUP2 MSTORE PUSH1 0xD PUSH1 0x20 MSTORE PUSH1 0x40 SWAP1 KECCAK256 PUSH1 0x7 ADD SLOAD PUSH1 0xFF AND SWAP1 JUMP JUMPDEST PUSH1 0x1 SLOAD PUSH1 0x1 PUSH1 0x1 PUSH1 0xA0 SHL SUB SWAP1 DUP2 AND PUSH1 0x0 SWAP1 DUP2 MSTORE PUSH1 0xD PUSH1 0x20 MSTORE PUSH1 0x40 SWAP1 KECCAK256 PUSH1 0x3 ADD SLOAD AND SWAP1 JUMP JUMPDEST PUSH1 0x0 PUSH1 0x8 SLOAD TIMESTAMP LT PUSH2 0x873 JUMPI PUSH1 0x40 MLOAD PUSH3 0x461BCD PUSH1 0xE5 SHL DUP2 MSTORE PUSH1 0x4 ADD PUSH2 0x361 SWAP1 PUSH2 0x134B JUMP JUMPDEST PUSH2 0x7B8 DUP3 PUSH2 0xDA4 JUMP JUMPDEST PUSH2 0x884 PUSH2 0xCEC JUMP JUMPDEST PUSH1 0x1 PUSH1 0x1 PUSH1 0xA0 SHL SUB AND PUSH2 0x895 PUSH2 0xAE4 JUMP JUMPDEST PUSH1 0x1 PUSH1 0x1 PUSH1 0xA0 SHL SUB AND EQ PUSH2 0x8BB JUMPI PUSH1 0x40 MLOAD PUSH3 0x461BCD PUSH1 0xE5 SHL DUP2 MSTORE PUSH1 0x4 ADD PUSH2 0x361 SWAP1 PUSH2 0x158A JUMP JUMPDEST PUSH2 0x8C5 PUSH1 0x0 PUSH2 0xF3E JUMP JUMPDEST JUMP JUMPDEST PUSH2 0x8CF PUSH2 0xCEC JUMP JUMPDEST PUSH1 0x1 PUSH1 0x1 PUSH1 0xA0 SHL SUB AND PUSH2 0x8E0 PUSH2 0xAE4 JUMP JUMPDEST PUSH1 0x1 PUSH1 0x1 PUSH1 0xA0 SHL SUB AND EQ PUSH2 0x906 JUMPI PUSH1 0x40 MLOAD PUSH3 0x461BCD PUSH1 0xE5 SHL DUP2 MSTORE PUSH1 0x4 ADD PUSH2 0x361 SWAP1 PUSH2 0x158A JUMP JUMPDEST PUSH1 0x8 SLOAD TIMESTAMP LT PUSH2 0x927 JUMPI PUSH1 0x40 MLOAD PUSH3 0x461BCD PUSH1 0xE5 SHL DUP2 MSTORE PUSH1 0x4 ADD PUSH2 0x361 SWAP1 PUSH2 0x1499 JUMP JUMPDEST PUSH1 0x7 SLOAD TIMESTAMP GT PUSH2 0x948 JUMPI PUSH1 0x40 MLOAD PUSH3 0x461BCD PUSH1 0xE5 SHL DUP2 MSTORE PUSH1 0x4 ADD PUSH2 0x361 SWAP1 PUSH2 0x1416 JUMP JUMPDEST PUSH1 0x9 SLOAD PUSH1 0xFF AND PUSH2 0x96A JUMPI PUSH1 0x40 MLOAD PUSH3 0x461BCD PUSH1 0xE5 SHL DUP2 MSTORE PUSH1 0x4 ADD PUSH2 0x361 SWAP1 PUSH2 0x12B7 JUMP JUMPDEST PUSH1 0x1 PUSH1 0x1 PUSH1 0xA0 SHL SUB DUP2 AND PUSH1 0x0 SWAP1 DUP2 MSTORE PUSH1 0xB PUSH1 0x20 MSTORE PUSH1 0x40 SWAP1 KECCAK256 SLOAD ISZERO PUSH2 0x9A0 JUMPI PUSH1 0x40 MLOAD PUSH3 0x461BCD PUSH1 0xE5 SHL DUP2 MSTORE PUSH1 0x4 ADD PUSH2 0x361 SWAP1 PUSH2 0x17D6 JUMP JUMPDEST PUSH1 0x40 MLOAD PUSH4 0x70A08231 PUSH1 0xE0 SHL DUP2 MSTORE PUSH1 0x0 SWAP1 PUSH1 0x1 PUSH1 0x1 PUSH1 0xA0 SHL SUB DUP4 AND SWAP1 PUSH4 0x70A08231 SWAP1 PUSH2 0x9CF SWAP1 ADDRESS SWAP1 PUSH1 0x4 ADD PUSH2 0x11E8 JUMP JUMPDEST PUSH1 0x20 PUSH1 0x40 MLOAD DUP1 DUP4 SUB DUP2 DUP7 DUP1 EXTCODESIZE ISZERO DUP1 ISZERO PUSH2 0x9E7 JUMPI PUSH1 0x0 DUP1 REVERT JUMPDEST POP GAS STATICCALL ISZERO DUP1 ISZERO PUSH2 0x9FB JUMPI RETURNDATASIZE PUSH1 0x0 DUP1 RETURNDATACOPY RETURNDATASIZE PUSH1 0x0 REVERT JUMPDEST POP POP POP POP PUSH1 0x40 MLOAD RETURNDATASIZE PUSH1 0x1F NOT PUSH1 0x1F DUP3 ADD AND DUP3 ADD DUP1 PUSH1 0x40 MSTORE POP DUP2 ADD SWAP1 PUSH2 0xA1F SWAP2 SWAP1 PUSH2 0x11B4 JUMP JUMPDEST PUSH1 0x1 PUSH1 0x1 PUSH1 0xA0 SHL SUB DUP4 AND PUSH1 0x0 SWAP1 DUP2 MSTORE PUSH1 0xB PUSH1 0x20 MSTORE PUSH1 0x40 DUP2 KECCAK256 TIMESTAMP SWAP1 SSTORE SWAP1 SWAP2 POP PUSH2 0xA46 DUP4 PUSH2 0xCF0 JUMP JUMPDEST SWAP1 POP PUSH1 0x0 PUSH2 0xA54 DUP4 DUP4 PUSH2 0xFA6 JUMP JUMPDEST PUSH1 0x1 PUSH1 0x1 PUSH1 0xA0 SHL SUB DUP1 DUP7 AND PUSH1 0x0 SWAP1 DUP2 MSTORE PUSH1 0xC PUSH1 0x20 SWAP1 DUP2 MSTORE PUSH1 0x40 DUP1 DUP4 KECCAK256 DUP6 SWAP1 SSTORE PUSH1 0x1 DUP1 SLOAD DUP6 AND DUP5 MSTORE PUSH1 0xD SWAP1 SWAP3 MSTORE DUP1 DUP4 KECCAK256 PUSH1 0x7 SWAP1 DUP2 ADD DUP1 SLOAD PUSH1 0xFF NOT AND SWAP1 SSTORE SWAP2 SLOAD SWAP1 SWAP4 AND DUP3 MSTORE SWAP1 DUP3 SWAP1 KECCAK256 ADD DUP1 SLOAD PUSH2 0xFF00 NOT AND SWAP1 SSTORE MLOAD SWAP1 SWAP2 POP PUSH32 0x39983C6D4D174A7AEE564F449D4A5C3C7AC9649D72B7793C56901183996F8AF6 SWAP1 PUSH2 0xAD6 SWAP1 DUP7 SWAP1 PUSH2 0x11E8 JUMP JUMPDEST PUSH1 0x40 MLOAD DUP1 SWAP2 SUB SWAP1 LOG1 POP POP POP POP JUMP JUMPDEST PUSH1 0x0 SLOAD PUSH1 0x1 PUSH1 0x1 PUSH1 0xA0 SHL SUB AND SWAP1 JUMP JUMPDEST PUSH1 0x1 SLOAD PUSH1 0x1 PUSH1 0x1 PUSH1 0xA0 SHL SUB SWAP1 DUP2 AND PUSH1 0x0 SWAP1 DUP2 MSTORE PUSH1 0xD PUSH1 0x20 MSTORE PUSH1 0x40 SWAP1 KECCAK256 PUSH1 0x2 ADD SLOAD AND SWAP1 JUMP JUMPDEST PUSH1 0x1 PUSH1 0x1 PUSH1 0xA0 SHL SUB AND PUSH1 0x0 SWAP1 DUP2 MSTORE PUSH1 0xA PUSH1 0x20 MSTORE PUSH1 0x40 SWAP1 KECCAK256 SLOAD SWAP1 JUMP JUMPDEST PUSH1 0x1 SLOAD PUSH1 0x1 PUSH1 0x1 PUSH1 0xA0 SHL SUB AND PUSH1 0x0 SWAP1 DUP2 MSTORE PUSH1 0xD PUSH1 0x20 MSTORE PUSH1 0x40 SWAP1 KECCAK256 PUSH1 0x7 ADD SLOAD PUSH3 0x10000 SWAP1 DIV PUSH1 0xFF AND ISZERO PUSH2 0xB76 JUMPI PUSH1 0x40 MLOAD PUSH3 0x461BCD PUSH1 0xE5 SHL DUP2 MSTORE PUSH1 0x4 ADD PUSH2 0x361 SWAP1 PUSH2 0x14F6 JUMP JUMPDEST PUSH1 0x1 DUP1 SLOAD PUSH1 0x1 PUSH1 0x1 PUSH1 0xA0 SHL SUB AND PUSH1 0x0 SWAP1 DUP2 MSTORE PUSH1 0xD PUSH1 0x20 MSTORE PUSH1 0x40 SWAP1 KECCAK256 PUSH1 0x7 ADD SLOAD PUSH1 0xFF AND ISZERO ISZERO EQ PUSH2 0xBB7 JUMPI PUSH1 0x40 MLOAD PUSH3 0x461BCD PUSH1 0xE5 SHL DUP2 MSTORE PUSH1 0x4 ADD PUSH2 0x361 SWAP1 PUSH2 0x15F6 JUMP JUMPDEST PUSH1 0x1 SLOAD PUSH1 0x1 PUSH1 0x1 PUSH1 0xA0 SHL SUB SWAP1 DUP2 AND PUSH1 0x0 SWAP1 DUP2 MSTORE PUSH1 0xD PUSH1 0x20 MSTORE PUSH1 0x40 SWAP1 KECCAK256 PUSH1 0x2 ADD SLOAD AND CALLER EQ PUSH2 0xBF6 JUMPI PUSH1 0x40 MLOAD PUSH3 0x461BCD PUSH1 0xE5 SHL DUP2 MSTORE PUSH1 0x4 ADD PUSH2 0x361 SWAP1 PUSH2 0x162B JUMP JUMPDEST PUSH1 0x1 DUP1 SLOAD PUSH1 0x1 PUSH1 0x1 PUSH1 0xA0 SHL SUB SWAP1 DUP2 AND PUSH1 0x0 SWAP1 DUP2 MSTORE PUSH1 0xD PUSH1 0x20 MSTORE PUSH1 0x40 DUP1 DUP3 KECCAK256 PUSH1 0x7 ADD DUP1 SLOAD PUSH3 0xFF0000 NOT AND PUSH3 0x10000 OR SWAP1 SSTORE SWAP3 SLOAD DUP3 AND DUP2 MSTORE SWAP2 SWAP1 SWAP2 KECCAK256 PUSH1 0x2 DUP2 ADD SLOAD PUSH1 0x5 SWAP1 SWAP2 ADD SLOAD PUSH2 0x6C3 SWAP3 DUP5 DUP2 AND SWAP3 AND SWAP1 PUSH2 0xD1C JUMP JUMPDEST TIMESTAMP SWAP1 JUMP JUMPDEST PUSH2 0xC56 PUSH2 0xCEC JUMP JUMPDEST PUSH1 0x1 PUSH1 0x1 PUSH1 0xA0 SHL SUB AND PUSH2 0xC67 PUSH2 0xAE4 JUMP JUMPDEST PUSH1 0x1 PUSH1 0x1 PUSH1 0xA0 SHL SUB AND EQ PUSH2 0xC8D JUMPI PUSH1 0x40 MLOAD PUSH3 0x461BCD PUSH1 0xE5 SHL DUP2 MSTORE PUSH1 0x4 ADD PUSH2 0x361 SWAP1 PUSH2 0x158A JUMP JUMPDEST PUSH1 0x1 PUSH1 0x1 PUSH1 0xA0 SHL SUB DUP2 AND PUSH2 0xCB3 JUMPI PUSH1 0x40 MLOAD PUSH3 0x461BCD PUSH1 0xE5 SHL DUP2 MSTORE PUSH1 0x4 ADD PUSH2 0x361 SWAP1 PUSH2 0x12EE JUMP JUMPDEST PUSH2 0x6C3 DUP2 PUSH2 0xF3E JUMP JUMPDEST PUSH1 0x1 PUSH1 0x1 PUSH1 0xA0 SHL SUB AND PUSH1 0x0 SWAP1 DUP2 MSTORE PUSH1 0xB PUSH1 0x20 MSTORE PUSH1 0x40 SWAP1 KECCAK256 SLOAD ISZERO ISZERO SWAP1 JUMP JUMPDEST PUSH1 0x0 PUSH2 0xCE5 DUP3 DUP5 PUSH2 0x183C JUMP JUMPDEST SWAP4 SWAP3 POP POP POP JUMP JUMPDEST CALLER SWAP1 JUMP JUMPDEST PUSH1 0x1 PUSH1 0x1 PUSH1 0xA0 SHL SUB DUP2 AND PUSH1 0x0 SWAP1 DUP2 MSTORE PUSH1 0xA PUSH1 0x20 MSTORE PUSH1 0x40 DUP2 KECCAK256 SLOAD PUSH2 0x7B8 SWAP1 PUSH2 0xD16 DUP5 PUSH2 0xDA4 JUMP JUMPDEST SWAP1 PUSH2 0xFA6 JUMP JUMPDEST PUSH2 0xD9F DUP4 PUSH4 0xA9059CBB PUSH1 0xE0 SHL DUP5 DUP5 PUSH1 0x40 MLOAD PUSH1 0x24 ADD PUSH2 0xD3B SWAP3 SWAP2 SWAP1 PUSH2 0x1260 JUMP JUMPDEST PUSH1 0x40 DUP1 MLOAD PUSH1 0x1F NOT DUP2 DUP5 SUB ADD DUP2 MSTORE SWAP2 SWAP1 MSTORE PUSH1 0x20 DUP2 ADD DUP1 MLOAD PUSH28 0xFFFFFFFFFFFFFFFFFFFFFFFFFFFFFFFFFFFFFFFFFFFFFFFFFFFFFFFF AND PUSH32 0xFFFFFFFF00000000000000000000000000000000000000000000000000000000 SWAP1 SWAP4 AND SWAP3 SWAP1 SWAP3 OR SWAP1 SWAP2 MSTORE PUSH2 0xFB2 JUMP JUMPDEST POP POP POP JUMP JUMPDEST PUSH1 0x0 DUP1 DUP3 PUSH1 0x1 PUSH1 0x1 PUSH1 0xA0 SHL SUB AND PUSH4 0x70A08231 ADDRESS PUSH1 0x40 MLOAD DUP3 PUSH4 0xFFFFFFFF AND PUSH1 0xE0 SHL DUP2 MSTORE PUSH1 0x4 ADD PUSH2 0xDD3 SWAP2 SWAP1 PUSH2 0x11E8 JUMP JUMPDEST PUSH1 0x20 PUSH1 0x40 MLOAD DUP1 DUP4 SUB DUP2 DUP7 DUP1 EXTCODESIZE ISZERO DUP1 ISZERO PUSH2 0xDEB JUMPI PUSH1 0x0 DUP1 REVERT JUMPDEST POP GAS STATICCALL ISZERO DUP1 ISZERO PUSH2 0xDFF JUMPI RETURNDATASIZE PUSH1 0x0 DUP1 RETURNDATACOPY RETURNDATASIZE PUSH1 0x0 REVERT JUMPDEST POP POP POP POP PUSH1 0x40 MLOAD RETURNDATASIZE PUSH1 0x1F NOT PUSH1 0x1F DUP3 ADD AND DUP3 ADD DUP1 PUSH1 0x40 MSTORE POP DUP2 ADD SWAP1 PUSH2 0xE23 SWAP2 SWAP1 PUSH2 0x11B4 JUMP JUMPDEST PUSH1 0x1 PUSH1 0x1 PUSH1 0xA0 SHL SUB DUP5 AND PUSH1 0x0 SWAP1 DUP2 MSTORE PUSH1 0xC PUSH1 0x20 SWAP1 DUP2 MSTORE PUSH1 0x40 DUP1 DUP4 KECCAK256 SLOAD PUSH1 0xA SWAP1 SWAP3 MSTORE DUP3 KECCAK256 SLOAD SWAP3 SWAP4 POP SWAP1 SWAP2 PUSH2 0xE62 SWAP2 SWAP1 PUSH2 0xE5C SWAP1 DUP6 SWAP1 PUSH2 0xCD9 JUMP JUMPDEST SWAP1 PUSH2 0xCD9 JUMP JUMPDEST SWAP1 POP PUSH1 0x6 SLOAD TIMESTAMP LT ISZERO PUSH2 0xE79 JUMPI PUSH1 0x0 SWAP3 POP POP POP PUSH2 0x7BB JUMP JUMPDEST PUSH1 0x8 SLOAD PUSH1 0x7 SLOAD PUSH2 0xE88 SWAP2 PUSH2 0xCD9 JUMP JUMPDEST TIMESTAMP LT ISZERO DUP1 ISZERO PUSH2 0xEAD JUMPI POP PUSH1 0x1 PUSH1 0x1 PUSH1 0xA0 SHL SUB DUP5 AND PUSH1 0x0 SWAP1 DUP2 MSTORE PUSH1 0xB PUSH1 0x20 MSTORE PUSH1 0x40 SWAP1 KECCAK256 SLOAD ISZERO JUMPDEST ISZERO PUSH2 0xEBB JUMPI SWAP2 POP PUSH2 0x7BB SWAP1 POP JUMP JUMPDEST PUSH1 0x1 PUSH1 0x1 PUSH1 0xA0 SHL SUB DUP5 AND PUSH1 0x0 SWAP1 DUP2 MSTORE PUSH1 0xB PUSH1 0x20 MSTORE PUSH1 0x40 SWAP1 KECCAK256 SLOAD ISZERO PUSH2 0xF20 JUMPI PUSH1 0x8 SLOAD PUSH1 0x7 SLOAD PUSH1 0x1 PUSH1 0x1 PUSH1 0xA0 SHL SUB DUP7 AND PUSH1 0x0 SWAP1 DUP2 MSTORE PUSH1 0xB PUSH1 0x20 MSTORE PUSH1 0x40 SWAP1 KECCAK256 SLOAD PUSH2 0xF17 SWAP3 SWAP2 PUSH2 0xF11 SWAP2 PUSH2 0xF0A SWAP2 PUSH2 0xFA6 JUMP JUMPDEST DUP5 SWAP1 PUSH2 0x1041 JUMP JUMPDEST SWAP1 PUSH2 0x104D JUMP JUMPDEST SWAP3 POP POP POP PUSH2 0x7BB JUMP JUMPDEST PUSH2 0xF17 PUSH1 0x8 SLOAD PUSH2 0xF11 PUSH2 0xF0A PUSH1 0x7 SLOAD TIMESTAMP PUSH2 0xFA6 SWAP1 SWAP2 SWAP1 PUSH4 0xFFFFFFFF AND JUMP JUMPDEST PUSH1 0x0 DUP1 SLOAD PUSH1 0x1 PUSH1 0x1 PUSH1 0xA0 SHL SUB DUP4 DUP2 AND PUSH32 0xFFFFFFFFFFFFFFFFFFFFFFFF0000000000000000000000000000000000000000 DUP4 AND DUP2 OR DUP5 SSTORE PUSH1 0x40 MLOAD SWAP2 SWAP1 SWAP3 AND SWAP3 DUP4 SWAP2 PUSH32 0x8BE0079C531659141344CD1FD0A4F28419497F9722A3DAAFE3B4186F6B6457E0 SWAP2 SWAP1 LOG3 POP POP JUMP JUMPDEST PUSH1 0x0 PUSH2 0xCE5 DUP3 DUP5 PUSH2 0x1893 JUMP JUMPDEST PUSH1 0x0 PUSH2 0x1007 DUP3 PUSH1 0x40 MLOAD DUP1 PUSH1 0x40 ADD PUSH1 0x40 MSTORE DUP1 PUSH1 0x20 DUP2 MSTORE PUSH1 0x20 ADD PUSH32 0x5361666545524332303A206C6F772D6C6576656C2063616C6C206661696C6564 DUP2 MSTORE POP DUP6 PUSH1 0x1 PUSH1 0x1 PUSH1 0xA0 SHL SUB AND PUSH2 0x1059 SWAP1 SWAP3 SWAP2 SWAP1 PUSH4 0xFFFFFFFF AND JUMP JUMPDEST DUP1 MLOAD SWAP1 SWAP2 POP ISZERO PUSH2 0xD9F JUMPI DUP1 DUP1 PUSH1 0x20 ADD SWAP1 MLOAD DUP2 ADD SWAP1 PUSH2 0x1025 SWAP2 SWAP1 PUSH2 0x1194 JUMP JUMPDEST PUSH2 0xD9F JUMPI PUSH1 0x40 MLOAD PUSH3 0x461BCD PUSH1 0xE5 SHL DUP2 MSTORE PUSH1 0x4 ADD PUSH2 0x361 SWAP1 PUSH2 0x171C JUMP JUMPDEST PUSH1 0x0 PUSH2 0xCE5 DUP3 DUP5 PUSH2 0x1874 JUMP JUMPDEST PUSH1 0x0 PUSH2 0xCE5 DUP3 DUP5 PUSH2 0x1854 JUMP JUMPDEST PUSH1 0x60 PUSH2 0x1068 DUP5 DUP5 PUSH1 0x0 DUP6 PUSH2 0x1070 JUMP JUMPDEST SWAP5 SWAP4 POP POP POP POP JUMP JUMPDEST PUSH1 0x60 DUP3 SELFBALANCE LT ISZERO PUSH2 0x1092 JUMPI PUSH1 0x40 MLOAD PUSH3 0x461BCD PUSH1 0xE5 SHL DUP2 MSTORE PUSH1 0x4 ADD PUSH2 0x361 SWAP1 PUSH2 0x13B9 JUMP JUMPDEST PUSH2 0x109B DUP6 PUSH2 0x1130 JUMP JUMPDEST PUSH2 0x10B7 JUMPI PUSH1 0x40 MLOAD PUSH3 0x461BCD PUSH1 0xE5 SHL DUP2 MSTORE PUSH1 0x4 ADD PUSH2 0x361 SWAP1 PUSH2 0x1662 JUMP JUMPDEST PUSH1 0x0 DUP1 DUP7 PUSH1 0x1 PUSH1 0x1 PUSH1 0xA0 SHL SUB AND DUP6 DUP8 PUSH1 0x40 MLOAD PUSH2 0x10D3 SWAP2 SWAP1 PUSH2 0x11CC JUMP JUMPDEST PUSH1 0x0 PUSH1 0x40 MLOAD DUP1 DUP4 SUB DUP2 DUP6 DUP8 GAS CALL SWAP3 POP POP POP RETURNDATASIZE DUP1 PUSH1 0x0 DUP2 EQ PUSH2 0x1110 JUMPI PUSH1 0x40 MLOAD SWAP2 POP PUSH1 0x1F NOT PUSH1 0x3F RETURNDATASIZE ADD AND DUP3 ADD PUSH1 0x40 MSTORE RETURNDATASIZE DUP3 MSTORE RETURNDATASIZE PUSH1 0x0 PUSH1 0x20 DUP5 ADD RETURNDATACOPY PUSH2 0x1115 JUMP JUMPDEST PUSH1 0x60 SWAP2 POP JUMPDEST POP SWAP2 POP SWAP2 POP PUSH2 0x1125 DUP3 DUP3 DUP7 PUSH2 0x113F JUMP JUMPDEST SWAP8 SWAP7 POP POP POP POP POP POP POP JUMP JUMPDEST PUSH1 0x1 PUSH1 0x1 PUSH1 0xA0 SHL SUB AND EXTCODESIZE ISZERO ISZERO SWAP1 JUMP JUMPDEST PUSH1 0x60 DUP4 ISZERO PUSH2 0x114E JUMPI POP DUP2 PUSH2 0xCE5 JUMP JUMPDEST DUP3 MLOAD ISZERO PUSH2 0x115E JUMPI DUP3 MLOAD DUP1 DUP5 PUSH1 0x20 ADD REVERT JUMPDEST DUP2 PUSH1 0x40 MLOAD PUSH3 0x461BCD PUSH1 0xE5 SHL DUP2 MSTORE PUSH1 0x4 ADD PUSH2 0x361 SWAP2 SWAP1 PUSH2 0x1284 JUMP JUMPDEST PUSH1 0x0 PUSH1 0x20 DUP3 DUP5 SUB SLT ISZERO PUSH2 0x1189 JUMPI DUP1 DUP2 REVERT JUMPDEST DUP2 CALLDATALOAD PUSH2 0xCE5 DUP2 PUSH2 0x18F0 JUMP JUMPDEST PUSH1 0x0 PUSH1 0x20 DUP3 DUP5 SUB SLT ISZERO PUSH2 0x11A5 JUMPI DUP1 DUP2 REVERT JUMPDEST DUP2 MLOAD DUP1 ISZERO ISZERO DUP2 EQ PUSH2 0xCE5 JUMPI DUP2 DUP3 REVERT JUMPDEST PUSH1 0x0 PUSH1 0x20 DUP3 DUP5 SUB SLT ISZERO PUSH2 0x11C5 JUMPI DUP1 DUP2 REVERT JUMPDEST POP MLOAD SWAP2 SWAP1 POP JUMP JUMPDEST PUSH1 0x0 DUP3 MLOAD PUSH2 0x11DE DUP2 DUP5 PUSH1 0x20 DUP8 ADD PUSH2 0x18AA JUMP JUMPDEST SWAP2 SWAP1 SWAP2 ADD SWAP3 SWAP2 POP POP JUMP JUMPDEST PUSH1 0x1 PUSH1 0x1 PUSH1 0xA0 SHL SUB SWAP2 SWAP1 SWAP2 AND DUP2 MSTORE PUSH1 0x20 ADD SWAP1 JUMP JUMPDEST PUSH1 0x1 PUSH1 0x1 PUSH1 0xA0 SHL SUB SWAP12 DUP13 AND DUP2 MSTORE SWAP10 DUP12 AND PUSH1 0x20 DUP12 ADD MSTORE SWAP8 DUP11 AND PUSH1 0x40 DUP11 ADD MSTORE SWAP6 SWAP1 SWAP9 AND PUSH1 0x60 DUP9 ADD MSTORE PUSH1 0x80 DUP8 ADD SWAP4 SWAP1 SWAP4 MSTORE PUSH1 0xA0 DUP7 ADD SWAP2 SWAP1 SWAP2 MSTORE PUSH1 0xC0 DUP6 ADD MSTORE ISZERO ISZERO PUSH1 0xE0 DUP5 ADD MSTORE SWAP3 ISZERO ISZERO PUSH2 0x100 DUP4 ADD MSTORE SWAP2 ISZERO ISZERO PUSH2 0x120 DUP3 ADD MSTORE SWAP1 ISZERO ISZERO PUSH2 0x140 DUP3 ADD MSTORE PUSH2 0x160 ADD SWAP1 JUMP JUMPDEST PUSH1 0x1 PUSH1 0x1 PUSH1 0xA0 SHL SUB SWAP3 SWAP1 SWAP3 AND DUP3 MSTORE PUSH1 0x20 DUP3 ADD MSTORE PUSH1 0x40 ADD SWAP1 JUMP JUMPDEST SWAP1 ISZERO ISZERO DUP2 MSTORE PUSH1 0x20 ADD SWAP1 JUMP JUMPDEST PUSH1 0x0 PUSH1 0x20 DUP3 MSTORE DUP3 MLOAD DUP1 PUSH1 0x20 DUP5 ADD MSTORE PUSH2 0x12A3 DUP2 PUSH1 0x40 DUP6 ADD PUSH1 0x20 DUP8 ADD PUSH2 0x18AA JUMP JUMPDEST PUSH1 0x1F ADD PUSH1 0x1F NOT AND SWAP2 SWAP1 SWAP2 ADD PUSH1 0x40 ADD SWAP3 SWAP2 POP POP JUMP JUMPDEST PUSH1 0x20 DUP1 DUP3 MSTORE PUSH1 0x1B SWAP1 DUP3 ADD MSTORE PUSH32 0x546F6B656E56657374696E673A2063616E6E6F74207265766F6B650000000000 PUSH1 0x40 DUP3 ADD MSTORE PUSH1 0x60 ADD SWAP1 JUMP JUMPDEST PUSH1 0x20 DUP1 DUP3 MSTORE PUSH1 0x26 SWAP1 DUP3 ADD MSTORE PUSH32 0x4F776E61626C653A206E6577206F776E657220697320746865207A65726F2061 PUSH1 0x40 DUP3 ADD MSTORE PUSH32 0x6464726573730000000000000000000000000000000000000000000000000000 PUSH1 0x60 DUP3 ADD MSTORE PUSH1 0x80 ADD SWAP1 JUMP JUMPDEST PUSH1 0x20 DUP1 DUP3 MSTORE PUSH1 0x1F SWAP1 DUP3 ADD MSTORE PUSH32 0x7468652076657374696E672074696D6520706572696F64206973206F76657200 PUSH1 0x40 DUP3 ADD MSTORE PUSH1 0x60 ADD SWAP1 JUMP JUMPDEST PUSH1 0x20 DUP1 DUP3 MSTORE PUSH1 0x1F SWAP1 DUP3 ADD MSTORE PUSH32 0x546F6B656E56657374696E673A206E6F20746F6B656E73206172652064756500 PUSH1 0x40 DUP3 ADD MSTORE PUSH1 0x60 ADD SWAP1 JUMP JUMPDEST PUSH1 0x20 DUP1 DUP3 MSTORE PUSH1 0x26 SWAP1 DUP3 ADD MSTORE PUSH32 0x416464726573733A20696E73756666696369656E742062616C616E636520666F PUSH1 0x40 DUP3 ADD MSTORE PUSH32 0x722063616C6C0000000000000000000000000000000000000000000000000000 PUSH1 0x60 DUP3 ADD MSTORE PUSH1 0x80 ADD SWAP1 JUMP JUMPDEST PUSH1 0x20 DUP1 DUP3 MSTORE PUSH1 0x42 SWAP1 DUP3 ADD MSTORE PUSH32 0x56657374696E6720706572696F64206973206E6F742079657420737461727465 PUSH1 0x40 DUP3 ADD MSTORE PUSH32 0x64202121214F776E65722063616E6E6F74207265766F6B652074686520746F6B PUSH1 0x60 DUP3 ADD MSTORE PUSH32 0x656E000000000000000000000000000000000000000000000000000000000000 PUSH1 0x80 DUP3 ADD MSTORE PUSH1 0xA0 ADD SWAP1 JUMP JUMPDEST PUSH1 0x20 DUP1 DUP3 MSTORE PUSH1 0x37 SWAP1 DUP3 ADD MSTORE PUSH32 0x56657374696E6720706572696F64206973206F766572202121214F776E657220 PUSH1 0x40 DUP3 ADD MSTORE PUSH32 0x63616E6E6F74207265766F6B652074686520746F6B656E000000000000000000 PUSH1 0x60 DUP3 ADD MSTORE PUSH1 0x80 ADD SWAP1 JUMP JUMPDEST PUSH1 0x20 DUP1 DUP3 MSTORE PUSH1 0x13 SWAP1 DUP3 ADD MSTORE PUSH32 0x416C726561647920436C61696D65642021212100000000000000000000000000 PUSH1 0x40 DUP3 ADD MSTORE PUSH1 0x60 ADD SWAP1 JUMP JUMPDEST PUSH1 0x20 DUP1 DUP3 MSTORE PUSH1 0x38 SWAP1 DUP3 ADD MSTORE PUSH32 0x56657374696E6720706572696F64206973206F766572202121214F776E657220 PUSH1 0x40 DUP3 ADD MSTORE PUSH32 0x63616E6E6F742072656C656173652074686520746F6B656E0000000000000000 PUSH1 0x60 DUP3 ADD MSTORE PUSH1 0x80 ADD SWAP1 JUMP JUMPDEST PUSH1 0x20 DUP1 DUP3 MSTORE DUP2 DUP2 ADD MSTORE PUSH32 0x4F776E61626C653A2063616C6C6572206973206E6F7420746865206F776E6572 PUSH1 0x40 DUP3 ADD MSTORE PUSH1 0x60 ADD SWAP1 JUMP JUMPDEST PUSH1 0x20 DUP1 DUP3 MSTORE PUSH1 0x13 SWAP1 DUP3 ADD MSTORE PUSH32 0x596F7520617265206E6F742061647669736F7200000000000000000000000000 PUSH1 0x40 DUP3 ADD MSTORE PUSH1 0x60 ADD SWAP1 JUMP JUMPDEST PUSH1 0x20 DUP1 DUP3 MSTORE DUP2 DUP2 ADD MSTORE PUSH32 0x4D656E746F722063616E6E6F7420636C61696D20746865697220726577617264 PUSH1 0x40 DUP3 ADD MSTORE PUSH1 0x60 ADD SWAP1 JUMP JUMPDEST PUSH1 0x20 DUP1 DUP3 MSTORE PUSH1 0x12 SWAP1 DUP3 ADD MSTORE PUSH32 0x596F7520617265206E6F74206D656E746F720000000000000000000000000000 PUSH1 0x40 DUP3 ADD MSTORE PUSH1 0x60 ADD SWAP1 JUMP JUMPDEST PUSH1 0x20 DUP1 DUP3 MSTORE PUSH1 0x1D SWAP1 DUP3 ADD MSTORE PUSH32 0x416464726573733A2063616C6C20746F206E6F6E2D636F6E7472616374000000 PUSH1 0x40 DUP3 ADD MSTORE PUSH1 0x60 ADD SWAP1 JUMP JUMPDEST PUSH1 0x20 DUP1 DUP3 MSTORE PUSH1 0x43 SWAP1 DUP3 ADD MSTORE PUSH32 0x56657374696E6720706572696F64206973206E6F742079657420737461727465 PUSH1 0x40 DUP3 ADD MSTORE PUSH32 0x64202121214F776E65722063616E6E6F742072656C656173652074686520746F PUSH1 0x60 DUP3 ADD MSTORE PUSH32 0x6B656E0000000000000000000000000000000000000000000000000000000000 PUSH1 0x80 DUP3 ADD MSTORE PUSH1 0xA0 ADD SWAP1 JUMP JUMPDEST PUSH1 0x20 DUP1 DUP3 MSTORE PUSH1 0x2A SWAP1 DUP3 ADD MSTORE PUSH32 0x5361666545524332303A204552433230206F7065726174696F6E20646964206E PUSH1 0x40 DUP3 ADD MSTORE PUSH32 0x6F74207375636365656400000000000000000000000000000000000000000000 PUSH1 0x60 DUP3 ADD MSTORE PUSH1 0x80 ADD SWAP1 JUMP JUMPDEST PUSH1 0x20 DUP1 DUP3 MSTORE PUSH1 0x21 SWAP1 DUP3 ADD MSTORE PUSH32 0x41647669736F722063616E6E6F7420636C61696D207468656972207265776172 PUSH1 0x40 DUP3 ADD MSTORE PUSH32 0x6400000000000000000000000000000000000000000000000000000000000000 PUSH1 0x60 DUP3 ADD MSTORE PUSH1 0x80 ADD SWAP1 JUMP JUMPDEST PUSH1 0x20 DUP1 DUP3 MSTORE PUSH1 0x23 SWAP1 DUP3 ADD MSTORE PUSH32 0x546F6B656E56657374696E673A20746F6B656E20616C7265616479207265766F PUSH1 0x40 DUP3 ADD MSTORE PUSH32 0x6B65640000000000000000000000000000000000000000000000000000000000 PUSH1 0x60 DUP3 ADD MSTORE PUSH1 0x80 ADD SWAP1 JUMP JUMPDEST SWAP1 DUP2 MSTORE PUSH1 0x20 ADD SWAP1 JUMP JUMPDEST PUSH1 0x0 DUP3 NOT DUP3 GT ISZERO PUSH2 0x184F JUMPI PUSH2 0x184F PUSH2 0x18DA JUMP JUMPDEST POP ADD SWAP1 JUMP JUMPDEST PUSH1 0x0 DUP3 PUSH2 0x186F JUMPI PUSH4 0x4E487B71 PUSH1 0xE0 SHL DUP2 MSTORE PUSH1 0x12 PUSH1 0x4 MSTORE PUSH1 0x24 DUP2 REVERT JUMPDEST POP DIV SWAP1 JUMP JUMPDEST PUSH1 0x0 DUP2 PUSH1 0x0 NOT DIV DUP4 GT DUP3 ISZERO ISZERO AND ISZERO PUSH2 0x188E JUMPI PUSH2 0x188E PUSH2 0x18DA JUMP JUMPDEST POP MUL SWAP1 JUMP JUMPDEST PUSH1 0x0 DUP3 DUP3 LT ISZERO PUSH2 0x18A5 JUMPI PUSH2 0x18A5 PUSH2 0x18DA JUMP JUMPDEST POP SUB SWAP1 JUMP JUMPDEST PUSH1 0x0 JUMPDEST DUP4 DUP2 LT ISZERO PUSH2 0x18C5 JUMPI DUP2 DUP2 ADD MLOAD DUP4 DUP3 ADD MSTORE PUSH1 0x20 ADD PUSH2 0x18AD JUMP JUMPDEST DUP4 DUP2 GT ISZERO PUSH2 0x18D4 JUMPI PUSH1 0x0 DUP5 DUP5 ADD MSTORE JUMPDEST POP POP POP POP JUMP JUMPDEST PUSH4 0x4E487B71 PUSH1 0xE0 SHL PUSH1 0x0 MSTORE PUSH1 0x11 PUSH1 0x4 MSTORE PUSH1 0x24 PUSH1 0x0 REVERT JUMPDEST PUSH1 0x1 PUSH1 0x1 PUSH1 0xA0 SHL SUB DUP2 AND DUP2 EQ PUSH2 0x6C3 JUMPI PUSH1 0x0 DUP1 REVERT INVALID LOG2 PUSH5 0x6970667358 0x22 SLT KECCAK256 CALLDATASIZE SELFBALANCE SWAP11 EXTCODESIZE 0xEC 0xAC CALL 0xEA PUSH20 0x1BA11A1E3D8701B01A0FA68854D6417640B7E0BE 0x24 DUP10 EXTCODESIZE PUSH5 0x736F6C6343 STOP ADDMOD ADD STOP CALLER "
        },
        "methodIdentifiers": {
          "Roles(address)": "35e8acfb",
          "advisorsAddress()": "0dc10a60",
          "claim_advisor_vesting_amount(address)": "3310455b",
          "claim_mentor_vesting_amount(address)": "b71d010f",
          "cliff()": "13d033c0",
          "durations()": "4a41d89d",
          "getClaimStatusForAdvisor()": "19e2b0d3",
          "getClaimStatusForMentor()": "4fc0b3d0",
          "getContractBalance(address)": "43ab265f",
          "getTimeStamp()": "da235b22",
          "mentorsAddress()": "930a79c6",
          "owner()": "8da5cb5b",
          "partnersAddress()": "6a75f03d",
          "release(address)": "19165587",
          "released(address)": "9852595c",
          "renounceOwnership()": "715018a6",
          "revocables()": "0a8fc1e4",
          "revoke(address)": "74a8f103",
          "revoked(address)": "fa01dc06",
          "started()": "1f2698ab",
          "transferOwnership(address)": "f2fde38b",
          "vested(address)": "7102b728"
        }
      },
      "storageLayout": {
        "storage": [
          {
            "astId": 7,
            "contract": "contracts/vesting.sol:TokenVesting",
            "label": "_owner",
            "offset": 0,
            "slot": "0",
            "type": "t_address"
          },
          {
            "astId": 1692,
            "contract": "contracts/vesting.sol:TokenVesting",
            "label": "vesting_owner",
            "offset": 0,
            "slot": "1",
            "type": "t_address"
          },
          {
            "astId": 1695,
            "contract": "contracts/vesting.sol:TokenVesting",
            "label": "mentor_share",
            "offset": 0,
            "slot": "2",
            "type": "t_uint256"
          },
          {
            "astId": 1698,
            "contract": "contracts/vesting.sol:TokenVesting",
            "label": "advisor_share",
            "offset": 0,
            "slot": "3",
            "type": "t_uint256"
          },
          {
            "astId": 1701,
            "contract": "contracts/vesting.sol:TokenVesting",
            "label": "cliffDuration",
            "offset": 0,
            "slot": "4",
            "type": "t_uint256"
          },
          {
            "astId": 1707,
            "contract": "contracts/vesting.sol:TokenVesting",
            "label": "duration",
            "offset": 0,
            "slot": "5",
            "type": "t_uint256"
          },
          {
            "astId": 1719,
            "contract": "contracts/vesting.sol:TokenVesting",
            "label": "_cliff",
            "offset": 0,
            "slot": "6",
            "type": "t_uint256"
          },
          {
            "astId": 1721,
            "contract": "contracts/vesting.sol:TokenVesting",
            "label": "_start",
            "offset": 0,
            "slot": "7",
            "type": "t_uint256"
          },
          {
            "astId": 1723,
            "contract": "contracts/vesting.sol:TokenVesting",
            "label": "_duration",
            "offset": 0,
            "slot": "8",
            "type": "t_uint256"
          },
          {
            "astId": 1725,
            "contract": "contracts/vesting.sol:TokenVesting",
            "label": "_revocable",
            "offset": 0,
            "slot": "9",
            "type": "t_bool"
          },
          {
            "astId": 1752,
            "contract": "contracts/vesting.sol:TokenVesting",
            "label": "_released",
            "offset": 0,
            "slot": "10",
            "type": "t_mapping(t_address,t_uint256)"
          },
          {
            "astId": 1756,
            "contract": "contracts/vesting.sol:TokenVesting",
            "label": "_revoked",
            "offset": 0,
            "slot": "11",
            "type": "t_mapping(t_address,t_uint256)"
          },
          {
            "astId": 1760,
            "contract": "contracts/vesting.sol:TokenVesting",
            "label": "_refunded",
            "offset": 0,
            "slot": "12",
            "type": "t_mapping(t_address,t_uint256)"
          },
          {
            "astId": 1765,
            "contract": "contracts/vesting.sol:TokenVesting",
            "label": "Roles",
            "offset": 0,
            "slot": "13",
            "type": "t_mapping(t_address,t_struct(roles)1748_storage)"
          }
        ],
        "types": {
          "t_address": {
            "encoding": "inplace",
            "label": "address",
            "numberOfBytes": "20"
          },
          "t_bool": {
            "encoding": "inplace",
            "label": "bool",
            "numberOfBytes": "1"
          },
          "t_mapping(t_address,t_struct(roles)1748_storage)": {
            "encoding": "mapping",
            "key": "t_address",
            "label": "mapping(address => struct TokenVesting.roles)",
            "numberOfBytes": "32",
            "value": "t_struct(roles)1748_storage"
          },
          "t_mapping(t_address,t_uint256)": {
            "encoding": "mapping",
            "key": "t_address",
            "label": "mapping(address => uint256)",
            "numberOfBytes": "32",
            "value": "t_uint256"
          },
          "t_struct(roles)1748_storage": {
            "encoding": "inplace",
            "label": "struct TokenVesting.roles",
            "members": [
              {
                "astId": 1727,
                "contract": "contracts/vesting.sol:TokenVesting",
                "label": "vesting_owner",
                "offset": 0,
                "slot": "0",
                "type": "t_address"
              },
              {
                "astId": 1729,
                "contract": "contracts/vesting.sol:TokenVesting",
                "label": "advisor",
                "offset": 0,
                "slot": "1",
                "type": "t_address"
              },
              {
                "astId": 1731,
                "contract": "contracts/vesting.sol:TokenVesting",
                "label": "mentor",
                "offset": 0,
                "slot": "2",
                "type": "t_address"
              },
              {
                "astId": 1733,
                "contract": "contracts/vesting.sol:TokenVesting",
                "label": "partner",
                "offset": 0,
                "slot": "3",
                "type": "t_address"
              },
              {
                "astId": 1735,
                "contract": "contracts/vesting.sol:TokenVesting",
                "label": "price_amount_of_advisor",
                "offset": 0,
                "slot": "4",
                "type": "t_uint256"
              },
              {
                "astId": 1737,
                "contract": "contracts/vesting.sol:TokenVesting",
                "label": "price_amount_of_mentor",
                "offset": 0,
                "slot": "5",
                "type": "t_uint256"
              },
              {
                "astId": 1739,
                "contract": "contracts/vesting.sol:TokenVesting",
                "label": "price_amount_of_partner",
                "offset": 0,
                "slot": "6",
                "type": "t_uint256"
              },
              {
                "astId": 1741,
                "contract": "contracts/vesting.sol:TokenVesting",
                "label": "mentorCanClaim",
                "offset": 0,
                "slot": "7",
                "type": "t_bool"
              },
              {
                "astId": 1743,
                "contract": "contracts/vesting.sol:TokenVesting",
                "label": "advisorCanClaim",
                "offset": 1,
                "slot": "7",
                "type": "t_bool"
              },
              {
                "astId": 1745,
                "contract": "contracts/vesting.sol:TokenVesting",
                "label": "mentorClaimed",
                "offset": 2,
                "slot": "7",
                "type": "t_bool"
              },
              {
                "astId": 1747,
                "contract": "contracts/vesting.sol:TokenVesting",
                "label": "advisorClaimed",
                "offset": 3,
                "slot": "7",
                "type": "t_bool"
              }
            ],
            "numberOfBytes": "256"
          },
          "t_uint256": {
            "encoding": "inplace",
            "label": "uint256",
            "numberOfBytes": "32"
          }
        }
      }
    }
  }
}