{
  "_format": "hh-sol-artifact-1",
  "contractName": "TokenVesting",
  "sourceName": "contracts/vesting.sol",
  "abi": [
    {
      "inputs": [
        {
          "internalType": "uint256",
          "name": "start",
          "type": "uint256"
        },
        {
          "internalType": "bool",
          "name": "revocable",
          "type": "bool"
        },
        {
          "internalType": "address",
          "name": "_mentor",
          "type": "address"
        },
        {
          "internalType": "address",
          "name": "_advisor",
          "type": "address"
        },
        {
          "internalType": "address",
          "name": "_partner",
          "type": "address"
        }
      ],
      "stateMutability": "nonpayable",
      "type": "constructor"
    },
    {
      "anonymous": false,
      "inputs": [
        {
          "indexed": true,
          "internalType": "address",
          "name": "previousOwner",
          "type": "address"
        },
        {
          "indexed": true,
          "internalType": "address",
          "name": "newOwner",
          "type": "address"
        }
      ],
      "name": "OwnershipTransferred",
      "type": "event"
    },
    {
      "anonymous": false,
      "inputs": [
        {
          "indexed": false,
          "internalType": "address",
          "name": "token",
          "type": "address"
        }
      ],
      "name": "TokenVestingRevoked",
      "type": "event"
    },
    {
      "anonymous": false,
      "inputs": [
        {
          "indexed": false,
          "internalType": "address",
          "name": "token",
          "type": "address"
        },
        {
          "indexed": false,
          "internalType": "uint256",
          "name": "amount",
          "type": "uint256"
        }
      ],
      "name": "TokensReleased",
      "type": "event"
    },
    {
      "inputs": [
        {
          "internalType": "address",
          "name": "",
          "type": "address"
        }
      ],
      "name": "Roles",
      "outputs": [
        {
          "internalType": "address",
          "name": "vesting_owner",
          "type": "address"
        },
        {
          "internalType": "address",
          "name": "advisor",
          "type": "address"
        },
        {
          "internalType": "address",
          "name": "mentor",
          "type": "address"
        },
        {
          "internalType": "address",
          "name": "partner",
          "type": "address"
        },
        {
          "internalType": "uint256",
          "name": "price_amount_of_advisor",
          "type": "uint256"
        },
        {
          "internalType": "uint256",
          "name": "price_amount_of_mentor",
          "type": "uint256"
        },
        {
          "internalType": "uint256",
          "name": "price_amount_of_partner",
          "type": "uint256"
        },
        {
          "internalType": "bool",
          "name": "mentorCanClaim",
          "type": "bool"
        },
        {
          "internalType": "bool",
          "name": "advisorCanClaim",
          "type": "bool"
        },
        {
          "internalType": "bool",
          "name": "mentorClaimed",
          "type": "bool"
        },
        {
          "internalType": "bool",
          "name": "advisorClaimed",
          "type": "bool"
        }
      ],
      "stateMutability": "view",
      "type": "function"
    },
    {
      "inputs": [],
      "name": "advisorsAddress",
      "outputs": [
        {
          "internalType": "address",
          "name": "",
          "type": "address"
        }
      ],
      "stateMutability": "view",
      "type": "function"
    },
    {
      "inputs": [
        {
          "internalType": "contract IERC20",
          "name": "token",
          "type": "address"
        }
      ],
      "name": "claim_advisor_vesting_amount",
      "outputs": [],
      "stateMutability": "nonpayable",
      "type": "function"
    },
    {
      "inputs": [
        {
          "internalType": "contract IERC20",
          "name": "token",
          "type": "address"
        }
      ],
      "name": "claim_mentor_vesting_amount",
      "outputs": [],
      "stateMutability": "nonpayable",
      "type": "function"
    },
    {
      "inputs": [],
      "name": "cliff",
      "outputs": [
        {
          "internalType": "uint256",
          "name": "",
          "type": "uint256"
        }
      ],
      "stateMutability": "view",
      "type": "function"
    },
    {
      "inputs": [],
      "name": "durations",
      "outputs": [
        {
          "internalType": "uint256",
          "name": "",
          "type": "uint256"
        }
      ],
      "stateMutability": "view",
      "type": "function"
    },
    {
      "inputs": [],
      "name": "getClaimStatusForAdvisor",
      "outputs": [
        {
          "internalType": "bool",
          "name": "",
          "type": "bool"
        }
      ],
      "stateMutability": "view",
      "type": "function"
    },
    {
      "inputs": [],
      "name": "getClaimStatusForMentor",
      "outputs": [
        {
          "internalType": "bool",
          "name": "",
          "type": "bool"
        }
      ],
      "stateMutability": "view",
      "type": "function"
    },
    {
      "inputs": [
        {
          "internalType": "contract IERC20",
          "name": "token",
          "type": "address"
        }
      ],
      "name": "getContractBalance",
      "outputs": [
        {
          "internalType": "uint256",
          "name": "",
          "type": "uint256"
        }
      ],
      "stateMutability": "view",
      "type": "function"
    },
    {
      "inputs": [],
      "name": "getTimeStamp",
      "outputs": [
        {
          "internalType": "uint256",
          "name": "",
          "type": "uint256"
        }
      ],
      "stateMutability": "view",
      "type": "function"
    },
    {
      "inputs": [],
      "name": "mentorsAddress",
      "outputs": [
        {
          "internalType": "address",
          "name": "",
          "type": "address"
        }
      ],
      "stateMutability": "view",
      "type": "function"
    },
    {
      "inputs": [],
      "name": "owner",
      "outputs": [
        {
          "internalType": "address",
          "name": "",
          "type": "address"
        }
      ],
      "stateMutability": "view",
      "type": "function"
    },
    {
      "inputs": [],
      "name": "partnersAddress",
      "outputs": [
        {
          "internalType": "address",
          "name": "",
          "type": "address"
        }
      ],
      "stateMutability": "view",
      "type": "function"
    },
    {
      "inputs": [
        {
          "internalType": "contract IERC20",
          "name": "token",
          "type": "address"
        }
      ],
      "name": "release",
      "outputs": [],
      "stateMutability": "nonpayable",
      "type": "function"
    },
    {
      "inputs": [
        {
          "internalType": "address",
          "name": "token",
          "type": "address"
        }
      ],
      "name": "released",
      "outputs": [
        {
          "internalType": "uint256",
          "name": "",
          "type": "uint256"
        }
      ],
      "stateMutability": "view",
      "type": "function"
    },
    {
      "inputs": [],
      "name": "renounceOwnership",
      "outputs": [],
      "stateMutability": "nonpayable",
      "type": "function"
    },
    {
      "inputs": [],
      "name": "revocables",
      "outputs": [
        {
          "internalType": "bool",
          "name": "",
          "type": "bool"
        }
      ],
      "stateMutability": "view",
      "type": "function"
    },
    {
      "inputs": [
        {
          "internalType": "contract IERC20",
          "name": "token",
          "type": "address"
        }
      ],
      "name": "revoke",
      "outputs": [],
      "stateMutability": "nonpayable",
      "type": "function"
    },
    {
      "inputs": [
        {
          "internalType": "address",
          "name": "token",
          "type": "address"
        }
      ],
      "name": "revoked",
      "outputs": [
        {
          "internalType": "bool",
          "name": "",
          "type": "bool"
        }
      ],
      "stateMutability": "view",
      "type": "function"
    },
    {
      "inputs": [],
      "name": "started",
      "outputs": [
        {
          "internalType": "uint256",
          "name": "",
          "type": "uint256"
        }
      ],
      "stateMutability": "view",
      "type": "function"
    },
    {
      "inputs": [
        {
          "internalType": "address",
          "name": "newOwner",
          "type": "address"
        }
      ],
      "name": "transferOwnership",
      "outputs": [],
      "stateMutability": "nonpayable",
      "type": "function"
    },
    {
      "inputs": [
        {
          "internalType": "contract IERC20",
          "name": "token",
          "type": "address"
        }
      ],
      "name": "vested",
      "outputs": [
        {
          "internalType": "uint256",
          "name": "",
          "type": "uint256"
        }
      ],
      "stateMutability": "view",
      "type": "function"
    }
  ],
  "bytecode": "0x6080604052600760025560056003556078600455620000214261012c6200039a565b6005553480156200003157600080fd5b5060405162001d0a38038062001d0a83398101604081905262000054916200025e565b6200006862000062620001d8565b620001dc565b60018054336001600160a01b031991821617918290556001600160a01b039091166000818152600d6020526040902080549092161790556005546004541115620000cf5760405162461bcd60e51b8152600401620000c69062000318565b60405180910390fd5b600060055411620000f45760405162461bcd60e51b8152600401620000c69062000363565b4262000111600554876200022c60201b62000cd91790919060201c565b11620001315760405162461bcd60e51b8152600401620000c690620002c9565b6009805460ff1916851515179055600554600855600454620001619086906200022c602090811b62000cd917901c565b600655600794909455600180546001600160a01b039081166000908152600d602052604080822060020180549684166001600160a01b0319978816179055835483168252808220840180549584169587169590951790945591548116825291902060030180549190941691161790915550620003bf565b3390565b600080546001600160a01b038381166001600160a01b0319831681178455604051919092169283917f8be0079c531659141344cd1fd0a4f28419497f9722a3daafe3b4186f6b6457e09190a35050565b60006200023a82846200039a565b9392505050565b80516001600160a01b03811681146200025957600080fd5b919050565b600080600080600060a0868803121562000276578081fd5b85519450602086015180151581146200028d578182fd5b93506200029d6040870162000241565b9250620002ad6060870162000241565b9150620002bd6080870162000241565b90509295509295909350565b6020808252602f908201527f546f6b656e56657374696e673a2066696e616c2074696d65206973206265666f60408201526e72652063757272656e742074696d6560881b606082015260800190565b6020808252602b908201527f546f6b656e56657374696e673a20636c696666206973206c6f6e67657220746860408201526a30b710323ab930ba34b7b760a91b606082015260800190565b6020808252601b908201527f546f6b656e56657374696e673a206475726174696f6e20697320300000000000604082015260600190565b60008219821115620003ba57634e487b7160e01b81526011600452602481fd5b500190565b61193b80620003cf6000396000f3fe608060405234801561001057600080fd5b50600436106101825760003560e01c80636a75f03d116100d8578063930a79c61161008c578063da235b2211610066578063da235b22146102c0578063f2fde38b146102c8578063fa01dc06146102db57610182565b8063930a79c6146102925780639852595c1461029a578063b71d010f146102ad57610182565b8063715018a6116100bd578063715018a61461026f57806374a8f103146102775780638da5cb5b1461028a57610182565b80636a75f03d146102545780637102b7281461025c57610182565b80631f2698ab1161013a57806343ab265f1161011457806343ab265f146102315780634a41d89d146102445780634fc0b3d01461024c57610182565b80631f2698ab146101ec5780633310455b146101f457806335e8acfb1461020757610182565b806313d033c01161016b57806313d033c0146101ba57806319165587146101cf57806319e2b0d3146101e457610182565b80630a8fc1e4146101875780630dc10a60146101a5575b600080fd5b61018f6102ee565b60405161019c9190611279565b60405180910390f35b6101ad6102f7565b60405161019c91906111e8565b6101c261031c565b60405161019c9190611833565b6101e26101dd366004611178565b610322565b005b61018f610535565b6101c261059f565b6101e2610202366004611178565b6105a5565b61021a610215366004611178565b6106c6565b60405161019c9b9a999897969594939291906111fc565b6101c261023f366004611178565b610739565b6101c26107c0565b61018f6107c6565b6101ad61082c565b6101c261026a366004611178565b610850565b6101e261087c565b6101e2610285366004611178565b6108c7565b6101ad610ae4565b6101ad610af3565b6101c26102a8366004611178565b610b17565b6101e26102bb366004611178565b610b32565b6101c2610c4a565b6101e26102d6366004611178565b610c4e565b61018f6102e9366004611178565b610cbc565b60095460ff1690565b600180546001600160a01b039081166000908152600d60205260409020909101541690565b60065490565b61032a610cec565b6001600160a01b031661033b610ae4565b6001600160a01b03161461036a5760405162461bcd60e51b81526004016103619061158a565b60405180910390fd5b600061037582610cf0565b905060006064600254836103899190611874565b6103939190611854565b905060006064600354846103a79190611874565b6103b19190611854565b600180546001600160a01b039081166000908152600d6020526040808220600501879055925490911681522060040181905560085490915042106104075760405162461bcd60e51b81526004016103619061152d565b60075442116104285760405162461bcd60e51b815260040161036190611699565b600083116104485760405162461bcd60e51b815260040161036190611382565b6001600160a01b0384166000908152600a602052604090205461046b9084610cd9565b6001600160a01b0385166000908152600a60205260409081902091909155517fc7798891864187665ac6dd119286e44ec13f014527aeeb2b8eb3fd413df93179906104b99086908690611260565b60405180910390a15050600180546001600160a01b039081166000908152600d60205260408082206007908101805460ff1916861790558454841683528183208101805461ff0019166101001790558454841683528183208101805462ff000019169055935490921681522001805463ff000000191690555050565b600180546001600160a01b039081166000908152600d60205260408120909201541633146105755760405162461bcd60e51b8152600401610361906115bf565b506001546001600160a01b03166000908152600d6020526040902060070154610100900460ff1690565b60075490565b6001546001600160a01b03166000908152600d60205260409020600701546301000000900460ff16156105ea5760405162461bcd60e51b8152600401610361906114f6565b600180546001600160a01b03166000908152600d6020526040902060070154610100900460ff161515146106305760405162461bcd60e51b815260040161036190611779565b600180546001600160a01b039081166000908152600d60205260409020909101541633146106705760405162461bcd60e51b8152600401610361906115bf565b600180546001600160a01b039081166000908152600d6020526040808220600701805463ff000000191663010000001790558354831682529020918201546004909201546106c392848316921690610d1c565b50565b600d60205260009081526040902080546001820154600283015460038401546004850154600586015460068701546007909701546001600160a01b0396871697958716969485169593909416939192909160ff80821691610100810482169162010000820481169163010000009004168b565b6040516370a0823160e01b81526000906001600160a01b038316906370a08231906107689030906004016111e8565b60206040518083038186803b15801561078057600080fd5b505afa158015610794573d6000803e3d6000fd5b505050506040513d601f19601f820116820180604052508101906107b891906111b4565b90505b919050565b60085490565b6001546001600160a01b039081166000908152600d602052604081206002015490911633146108075760405162461bcd60e51b81526004016103619061162b565b506001546001600160a01b03166000908152600d602052604090206007015460ff1690565b6001546001600160a01b039081166000908152600d60205260409020600301541690565b600060085442106108735760405162461bcd60e51b81526004016103619061134b565b6107b882610da4565b610884610cec565b6001600160a01b0316610895610ae4565b6001600160a01b0316146108bb5760405162461bcd60e51b81526004016103619061158a565b6108c56000610f3e565b565b6108cf610cec565b6001600160a01b03166108e0610ae4565b6001600160a01b0316146109065760405162461bcd60e51b81526004016103619061158a565b60085442106109275760405162461bcd60e51b815260040161036190611499565b60075442116109485760405162461bcd60e51b815260040161036190611416565b60095460ff1661096a5760405162461bcd60e51b8152600401610361906112b7565b6001600160a01b0381166000908152600b6020526040902054156109a05760405162461bcd60e51b8152600401610361906117d6565b6040516370a0823160e01b81526000906001600160a01b038316906370a08231906109cf9030906004016111e8565b60206040518083038186803b1580156109e757600080fd5b505afa1580156109fb573d6000803e3d6000fd5b505050506040513d601f19601f82011682018060405250810190610a1f91906111b4565b6001600160a01b0383166000908152600b60205260408120429055909150610a4683610cf0565b90506000610a548383610fa6565b6001600160a01b038086166000908152600c602090815260408083208590556001805485168452600d9092528083206007908101805460ff19169055915490931682529082902001805461ff0019169055519091507f39983c6d4d174a7aee564f449d4a5c3c7ac9649d72b7793c56901183996f8af690610ad69086906111e8565b60405180910390a150505050565b6000546001600160a01b031690565b6001546001600160a01b039081166000908152600d60205260409020600201541690565b6001600160a01b03166000908152600a602052604090205490565b6001546001600160a01b03166000908152600d602052604090206007015462010000900460ff1615610b765760405162461bcd60e51b8152600401610361906114f6565b600180546001600160a01b03166000908152600d602052604090206007015460ff16151514610bb75760405162461bcd60e51b8152600401610361906115f6565b6001546001600160a01b039081166000908152600d6020526040902060020154163314610bf65760405162461bcd60e51b81526004016103619061162b565b600180546001600160a01b039081166000908152600d6020526040808220600701805462ff00001916620100001790559254821681529190912060028101546005909101546106c392848116921690610d1c565b4290565b610c56610cec565b6001600160a01b0316610c67610ae4565b6001600160a01b031614610c8d5760405162461bcd60e51b81526004016103619061158a565b6001600160a01b038116610cb35760405162461bcd60e51b8152600401610361906112ee565b6106c381610f3e565b6001600160a01b03166000908152600b6020526040902054151590565b6000610ce5828461183c565b9392505050565b3390565b6001600160a01b0381166000908152600a60205260408120546107b890610d1684610da4565b90610fa6565b610d9f8363a9059cbb60e01b8484604051602401610d3b929190611260565b60408051601f198184030181529190526020810180517bffffffffffffffffffffffffffffffffffffffffffffffffffffffff167fffffffff0000000000000000000000000000000000000000000000000000000090931692909217909152610fb2565b505050565b600080826001600160a01b03166370a08231306040518263ffffffff1660e01b8152600401610dd391906111e8565b60206040518083038186803b158015610deb57600080fd5b505afa158015610dff573d6000803e3d6000fd5b505050506040513d601f19601f82011682018060405250810190610e2391906111b4565b6001600160a01b0384166000908152600c6020908152604080832054600a9092528220549293509091610e629190610e5c908590610cd9565b90610cd9565b9050600654421015610e79576000925050506107bb565b600854600754610e8891610cd9565b4210158015610ead57506001600160a01b0384166000908152600b6020526040902054155b15610ebb5791506107bb9050565b6001600160a01b0384166000908152600b602052604090205415610f20576008546007546001600160a01b0386166000908152600b6020526040902054610f179291610f1191610f0a91610fa6565b8490611041565b9061104d565b925050506107bb565b610f17600854610f11610f0a60075442610fa690919063ffffffff16565b600080546001600160a01b038381167fffffffffffffffffffffffff0000000000000000000000000000000000000000831681178455604051919092169283917f8be0079c531659141344cd1fd0a4f28419497f9722a3daafe3b4186f6b6457e09190a35050565b6000610ce58284611893565b6000611007826040518060400160405280602081526020017f5361666545524332303a206c6f772d6c6576656c2063616c6c206661696c6564815250856001600160a01b03166110599092919063ffffffff16565b805190915015610d9f57808060200190518101906110259190611194565b610d9f5760405162461bcd60e51b81526004016103619061171c565b6000610ce58284611874565b6000610ce58284611854565b60606110688484600085611070565b949350505050565b6060824710156110925760405162461bcd60e51b8152600401610361906113b9565b61109b85611130565b6110b75760405162461bcd60e51b815260040161036190611662565b600080866001600160a01b031685876040516110d391906111cc565b60006040518083038185875af1925050503d8060008114611110576040519150601f19603f3d011682016040523d82523d6000602084013e611115565b606091505b509150915061112582828661113f565b979650505050505050565b6001600160a01b03163b151590565b6060831561114e575081610ce5565b82511561115e5782518084602001fd5b8160405162461bcd60e51b81526004016103619190611284565b600060208284031215611189578081fd5b8135610ce5816118f0565b6000602082840312156111a5578081fd5b81518015158114610ce5578182fd5b6000602082840312156111c5578081fd5b5051919050565b600082516111de8184602087016118aa565b9190910192915050565b6001600160a01b0391909116815260200190565b6001600160a01b039b8c168152998b1660208b0152978a1660408a0152959098166060880152608087019390935260a086019190915260c0850152151560e08401529215156101008301529115156101208201529015156101408201526101600190565b6001600160a01b03929092168252602082015260400190565b901515815260200190565b60006020825282518060208401526112a38160408501602087016118aa565b601f01601f19169190910160400192915050565b6020808252601b908201527f546f6b656e56657374696e673a2063616e6e6f74207265766f6b650000000000604082015260600190565b60208082526026908201527f4f776e61626c653a206e6577206f776e657220697320746865207a65726f206160408201527f6464726573730000000000000000000000000000000000000000000000000000606082015260800190565b6020808252601f908201527f7468652076657374696e672074696d6520706572696f64206973206f76657200604082015260600190565b6020808252601f908201527f546f6b656e56657374696e673a206e6f20746f6b656e73206172652064756500604082015260600190565b60208082526026908201527f416464726573733a20696e73756666696369656e742062616c616e636520666f60408201527f722063616c6c0000000000000000000000000000000000000000000000000000606082015260800190565b60208082526042908201527f56657374696e6720706572696f64206973206e6f74207965742073746172746560408201527f64202121214f776e65722063616e6e6f74207265766f6b652074686520746f6b60608201527f656e000000000000000000000000000000000000000000000000000000000000608082015260a00190565b60208082526037908201527f56657374696e6720706572696f64206973206f766572202121214f776e65722060408201527f63616e6e6f74207265766f6b652074686520746f6b656e000000000000000000606082015260800190565b60208082526013908201527f416c726561647920436c61696d65642021212100000000000000000000000000604082015260600190565b60208082526038908201527f56657374696e6720706572696f64206973206f766572202121214f776e65722060408201527f63616e6e6f742072656c656173652074686520746f6b656e0000000000000000606082015260800190565b6020808252818101527f4f776e61626c653a2063616c6c6572206973206e6f7420746865206f776e6572604082015260600190565b60208082526013908201527f596f7520617265206e6f742061647669736f7200000000000000000000000000604082015260600190565b6020808252818101527f4d656e746f722063616e6e6f7420636c61696d20746865697220726577617264604082015260600190565b60208082526012908201527f596f7520617265206e6f74206d656e746f720000000000000000000000000000604082015260600190565b6020808252601d908201527f416464726573733a2063616c6c20746f206e6f6e2d636f6e7472616374000000604082015260600190565b60208082526043908201527f56657374696e6720706572696f64206973206e6f74207965742073746172746560408201527f64202121214f776e65722063616e6e6f742072656c656173652074686520746f60608201527f6b656e0000000000000000000000000000000000000000000000000000000000608082015260a00190565b6020808252602a908201527f5361666545524332303a204552433230206f7065726174696f6e20646964206e60408201527f6f74207375636365656400000000000000000000000000000000000000000000606082015260800190565b60208082526021908201527f41647669736f722063616e6e6f7420636c61696d20746865697220726577617260408201527f6400000000000000000000000000000000000000000000000000000000000000606082015260800190565b60208082526023908201527f546f6b656e56657374696e673a20746f6b656e20616c7265616479207265766f60408201527f6b65640000000000000000000000000000000000000000000000000000000000606082015260800190565b90815260200190565b6000821982111561184f5761184f6118da565b500190565b60008261186f57634e487b7160e01b81526012600452602481fd5b500490565b600081600019048311821515161561188e5761188e6118da565b500290565b6000828210156118a5576118a56118da565b500390565b60005b838110156118c55781810151838201526020016118ad565b838111156118d4576000848401525b50505050565b634e487b7160e01b600052601160045260246000fd5b6001600160a01b03811681146106c357600080fdfea264697066735822122036479a3becacf1ea731ba11a1e3d8701b01a0fa68854d6417640b7e0be24893b64736f6c63430008010033",
  "linkReferences": {},
  "deployedLinkReferences": {}
}